:100000000C9434000C9460000C9485000C94510006
:100010000C9451000C9451000C9451000C9451001C
:100020000C9451000C9451000C9451000C9451000C
:100030000C9451000C9451000C9451000C945100FC
:100040000C9451000C9451000C9451000C945100EC
:100050000C9451000C9451000C9451000C945100DC
:100060000C9451000C94510011241FBECFEFD8E026
:10007000DEBFCDBF11E0A0E0B1E0E8E5F0E102C0F5
:1000800005900D92A43AB107D9F721E0A4EAB1E0B6
:1000900001C01D92AD3AB207E1F70E94B8010C947D
:1000A0002A080C940000E9E6F0E080818A608083F1
:1000B00080818A7F80838DB383608DBB789408951F
:1000C0001F920F920FB60F9211248F93489B0CC072
:1000D0008091AB018F5F8093AB018091AB01843045
:1000E00070F01092AB010BC08091AA018F5F8093DA
:1000F000AA018091AA01823010F01092AA018F917A
:100100000F900FBE0F901F9018951F920F920FB671
:100110000F9211248F9381E08093AC018F910F9007
:100120000FBE0F901F9018950E9418038091AC018C
:10013000882309F441C01092AC0160E080E00E9485
:10014000AB0586E091E00E94B4046FE081E00E947C
:10015000AB0586E50E94A40421C020E030E040E821
:1001600060E088E40E94D0029093A9018093A801E6
:1001700060E081E00E94AB058091A8019091A90107
:100180000E94470444E00E94C1042FEF80E792E000
:10019000215080409040E1F700C000008091AC0108
:1001A0008823D9F28091A8019091A9019093A70189
:1001B0008093A6011092AC0108950E944A03809199
:1001C000AC01882309F441C01092AC0160E080E0EA
:1001D0000E94AB0581E191E00E94B4046FE081E0F0
:1001E0000E94AB0586E50E94A40421C020E030E017
:1001F00040E860E088E40E94D0029093A9018093D7
:10020000A80160E081E00E94AB058091A801909177
:10021000A9010E94470444E00E94C1042FEF80E737
:1002200092E0215080409040E1F700C000008091B2
:10023000AC018823D9F28091A8019091A9019093F3
:100240000501809304011092AC0108950E947C0383
:100250008091AC01882309F441C01092AC0160E0A8
:1002600080E00E94AB058CE191E00E94B4046FE055
:1002700081E00E94AB0586E50E94A40421C020E035
:1002800030E040E860E088E40E94D0029093A90149
:100290008093A80160E081E00E94AB058091A801F5
:1002A0009091A9010E94470444E00E94C1042FEFED
:1002B00080E792E0215080409040E1F700C00000CC
:1002C0008091AC018823D9F28091A8019091A90175
:1002D00090930301809302011092AC0108950E9453
:1002E000AE038091AC01882309F441C01092AC01A7
:1002F00060E080E00E94AB0587E291E00E94B404D8
:100300006FE081E00E94AB0586E50E94A40421C055
:1003100020E030E040E860E088E40E94D002909362
:10032000A9018093A80160E081E00E94AB05809163
:10033000A8019091A9010E94470444E00E94C104D1
:100340002FEF80E792E0215080409040E1F700C01D
:1003500000008091AC018823D9F28091A80190918E
:10036000A90190930101809300011092AC010895BE
:100370000E94C4058AB1827F8AB98BB18D608BB926
:100380000E94530060E080E00E94AB0582E391E0B0
:100390000E94B40460E081E00E94AB058DE391E02F
:1003A0000E94B4042FEF83ED90E3215080409040F1
:1003B000E1F700C0000081E00E9494042FEF81EE7D
:1003C00094E0215080409040E1F700C00000489B3D
:1003D0001BC00E94FE028091AB01813049F028F0E1
:1003E000823049F0833051F00CC00E949400EFCF6E
:1003F0000E94DD00ECCF0E942601E9CF0E946F0130
:10040000E6CF0E949400E3CF0E94E0038091AA010E
:10041000882371F1813009F05AC00E94FF03809156
:10042000AC018823A1F20E94BA056EE081E00E942F
:10043000AB0586E50E94A40414C060E081E00E9440
:10044000AB0520E030E040E860E088E40E94D002A4
:100450009093A5018093A4010E94470444E00E9468
:10046000C1048091AC01882341F31092AC01AFCF5D
:100470000E9423048091AC01882309F4A8CF0E9434
:10048000BA056EE081E00E94AB0587E00E94A404FB
:1004900083E40E94A40414C060E081E00E94AB05E4
:1004A00020E030E040E860E088E40E94D0029093D1
:1004B000A5018093A4010E94590442E00E94C10456
:1004C0008091AC01882341F31092AC0180CF0E944F
:1004D00023048091AC01882309F479CF0E94BA05E6
:1004E0006EE081E00E94AB0587E00E94A40483E4F3
:1004F0000E94A40414C060E081E00E94AB0520E0EB
:1005000030E040E860E088E40E94D0029093A501CA
:100510008093A4010E94590442E00E94C10480918A
:10052000AC01882341F31092AC0151CF1F93CF93BC
:10053000DF93162FC42FD52F880F0E94F005812F2F
:100540000E9422068D2F0E9422068C2F0E942206D6
:100550000E941A0680E0DF91CF911F910895CF93FA
:10056000DF93D62FC82FCC0F8C2F0E94F0058D2F34
:100570000E9422060E941A0681E08C0F0E94170634
:100580000E943406C82F0E943E06D82F0E941A06E9
:100590008C2F90E0982F88278D2BDF91CF91089595
:1005A000CF93643038F54360242BA9015160611169
:1005B00003C0A90151640EC0613019F4A90151654D
:1005C00009C0623019F4A901516604C0633011F406
:1005D000A9015167C82F506861E00E9496028FEF11
:1005E0009CE70197F1F700C0000060E08C2F0E94AB
:1005F000AF0202C080E090E0CF91089564E671E020
:1006000080E00E948A056CE571E081E00E948A0525
:1006100064E571E082E00E948A056CE471E083E0A9
:100620000E948A056CE971E087E00E948A050895BE
:1006300081E00E9494048FE19EE40197F1F700C0ED
:10064000000060E080E00E94AB0581E00E94A4040D
:1006500080E00E94A4046EE080E00E94AB0582E38B
:100660000E94A40485E30E94A40460E081E00E944B
:10067000AB0585E30E94A40480E30E94A4046EE01D
:1006800081E00E94AB0588E30E94A40480E30E94FD
:10069000A404089581E00E9494048FE19EE40197F0
:1006A000F1F700C0000060E080E00E94AB0582E34B
:1006B0000E94A40480E30E94A4046EE080E00E94F3
:1006C000AB0581E00E94A40482E00E94A40460E0E3
:1006D00081E00E94AB0585E30E94A40480E30E94B0
:1006E000A4046EE081E00E94AB0588E30E94A404AC
:1006F00080E30E94A404089581E00E9494048FE1A5
:100700009EE40197F1F700C0000060E080E00E94E5
:10071000AB0582E30E94A40480E30E94A4046EE07F
:1007200080E00E94AB0582E30E94A40485E30E945E
:10073000A40460E081E00E94AB0582E00E94A40472
:1007400080E00E94A4046EE081E00E94AB0588E393
:100750000E94A40480E30E94A404089581E00E9402
:1007600094048FE19EE40197F1F700C0000060E07F
:1007700080E00E94AB0582E30E94A40480E30E9413
:10078000A4046EE080E00E94AB0582E30E94A40412
:1007900085E30E94A40460E081E00E94AB0585E34C
:1007A0000E94A40480E30E94A4046EE081E00E9401
:1007B000AB0583E00E94A40480E00E94A404089595
:1007C00064E971E080E00E948A056CE871E081E0F4
:1007D0000E948A0564E871E082E00E948A056CE765
:1007E00071E083E00E948A0564E771E084E00E9482
:1007F0008A056CE671E085E00E948A05089581E033
:100800000E9494048FE19EE40197F1F700C000007C
:1008100060E081E00E94AB0580E00E94940481E0EA
:100820000E94940482E00E9494046DE081E00E94A2
:10083000AB0583E40E94940485E60E9494048CE650
:100840000E949404089581E00E9494048FE19EE444
:100850000197F1F700C0000060E081E00E94AB0565
:1008600086E50E9494048FE60E9494048CE60E9420
:1008700094046DE081E00E94AB0583E00E94940443
:1008800084E00E94940485E00E9494040895BC01D1
:1008900080E090E00E94E90626EA3BE944EC50E45F
:1008A0000E949B0720E030E040E058E30E949B0755
:1008B0000895BC0180E090E00E94E90626EA3BE949
:1008C00044EC50E40E949B0720E030E040E058E315
:1008D0000E949B0728E535E545ED5FE30E94490648
:1008E00020E030E040E451E40E949B07089588B185
:1008F000846088B98FE891E00197F1F700C00000AB
:1009000088B18B7F88B98FE891E00197F1F700C03B
:100910000000089595B1937C95B995B1807F982B8F
:1009200095B90E9477040895CF93C82F88B18E7F20
:1009300088B98C2F807F0E948A048C2F8295807FBB
:100940000E948A04CF910895CF93C82F88B1816007
:1009500088B98C2F807F0E948A048C2F8295807F9B
:100960000E948A04CF910895CF93DF93EC0103C0D6
:100970000E94A404219688818111FACFDF91CF9142
:1009800008957F928F929F92AF92BF92CF92DF9203
:10099000EF92FF920F931F93CF93DF93CDB7DEB704
:1009A00068970FB6F894DEBF0FBECDBF4B015C0158
:1009B000742E84E0841718F46894772472F820E089
:1009C00030E0A901C501B4010E94B50688233CF4BA
:1009D0008DE20E94A404B7FAB094B7F8B094C501B0
:1009E000B4010E94BA066B017C010E94E9069B01DA
:1009F000AC01C501B4010E9448064B015C01C11461
:100A0000D104E104F104D1F480E3898301E030C032
:100A1000C701B6012AE030E040E050E00E9408083B
:100A2000EDE0F0E0EC0FFD1FE10FF11D605D608374
:100A3000C22ED32EE42EF52E1F5F01C010E0C1148C
:100A4000D104E104F10421F700E010C01150EDE001
:100A5000F0E0EC0FFD1FE10FF11D8081E1E0F0E01F
:100A6000EC0FFD1FE00FF11D80830F5F1111EECF22
:100A7000E1E0F0E0EC0FFD1FE00FF11D108210E04F
:100A80000AC0E1E0F0E0EC0FFD1FE10FF11D8081F5
:100A90000E94A4041F5F1017A0F3772039F18EE2A3
:100AA0000E94A40400E020C020E030E040E251E4D5
:100AB000C501B4010E949B076B017C010E94BA062C
:100AC000162F80E3810F0E94A404612F70E080E064
:100AD00090E00E94EB069B01AC01C701B6010E94A9
:100AE00048064B015C010F5F0715F0F268960FB6E0
:100AF000F894DEBF0FBECDBFDF91CF911F910F9154
:100B0000FF90EF90DF90CF90BF90AF909F908F902D
:100B10007F9008950F931F93CF938B01877090E080
:100B2000880F991F880F991F880F991F80640E9452
:100B30009404C0E007C0F801EC0FF11D80810E9411
:100B4000A404CF5FC830B8F380E80E949404CF912A
:100B50001F910F91089520E4829FC00111248068A5
:100B6000860F0E94940487EC90E00197F1F700C093
:100B70000000089581E00E9494048FE19EE40197B3
:100B8000F1F700C0000008951092B90088E4809346
:100B9000B800089594EA9093BC009091BC0099230A
:100BA000E4F79091B900987F983011F0903191F46A
:100BB0008093BB0084E88093BC008091BC008823B4
:100BC000E4F78091B900887F883131F0803431F4C6
:100BD00080E0089581E0089580E0089581E008951F
:100BE00094EA9093BC009091BC009923E4F7909113
:100BF000B900987F983011F0903191F78093BB0045
:100C000094E89093BC009091BC009923E4F79091F4
:100C1000B900987F903211F0983541F494E990939F
:100C2000BC009091BC0094FDFCCFDACF08950E94E7
:100C3000CA05089584E98093BC008091BC0084FDBE
:100C4000FCCF08958093BB0084E88093BC00809122
:100C5000BC008823E4F78091B900887F883211F0C6
:100C600081E0089580E0089584EC8093BC00809139
:100C7000BC008823E4F78091BB00089584E880934A
:100C8000BC008091BC008823E4F78091BB000895EC
:100C90005058BB27AA270E9460060C9461070E9447
:100CA000530738F00E945A0720F039F49F3F19F497
:100CB00026F40C9450070EF4E095E7FB0C944A07D9
:100CC000E92F0E94720758F3BA1762077307840767
:100CD000950720F079F4A6F50C9494070EF4E095AE
:100CE0000B2EBA2FA02D0B01B90190010C01CA01E6
:100CF000A0011124FF27591B99F0593F50F4503E91
:100D000068F11A16F040A22F232F342F4427585F82
:100D1000F3CF469537952795A795F0405395C9F79A
:100D20007EF41F16BA0B620B730B840BBAF0915052
:100D3000A1F0FF0FBB1F661F771F881FC2F70EC0F1
:100D4000BA0F621F731F841F48F4879577956795C4
:100D5000B795F7959E3F08F0B0CF9395880F08F0B0
:100D60009927EE0F9795879508950E94260708F416
:100D700081E008950E947A0788F09F5798F0B92F74
:100D80009927B751B0F0E1F0660F771F881F991FC0
:100D90001AF0BA95C9F714C0B13091F00E949407C7
:100DA000B1E008950C949407672F782F8827B85FD7
:100DB00039F0B93FCCF3869577956795B395D9F718
:100DC0003EF490958095709561957F4F8F4F9F4F22
:100DD0000895E89409C097FB3EF49095809570952E
:100DE00061957F4F8F4F9F4F9923A9F0F92F96E977
:100DF000BB279395F695879577956795B795F111EC
:100E0000F8CFFAF4BB0F11F460FF1BC06F5F7F4F88
:100E10008F4F9F4F16C0882311F096E911C077239A
:100E200021F09EE8872F762F05C0662371F096E8A3
:100E3000862F70E060E02AF09A95660F771F881F72
:100E4000DAF7880F9695879597F90895990F000816
:100E5000550FAA0BE0E8FEEF16161706E807F9078C
:100E6000C0F012161306E407F50798F0621B730B27
:100E7000840B950B39F40A2661F0232B242B252BA8
:100E800021F408950A2609F4A140A6958FEF811D4B
:100E9000811D089597F99F6780E870E060E00895EC
:100EA0009FEF80EC089500240A9416161706180682
:100EB0000906089500240A9412161306140605065E
:100EC0000895092E0394000C11F4882352F0BB0FEF
:100ED00040F4BF2B11F460FF04C06F5F7F4F8F4F52
:100EE0009F4F089557FD9058440F551F59F05F3F8D
:100EF00071F04795880F97FB991F61F09F3F79F03C
:100F000087950895121613061406551FF2CF4695BD
:100F1000F1DF08C0161617061806991FF1CF86953F
:100F20007105610508940895E894BB276627772723
:100F3000CB0197F908950E94AE070C9461070E94B7
:100F4000530738F00E945A0720F0952311F00C94B3
:100F50004A070C94500711240C9495070E947207BD
:100F600070F3959FC1F3950F50E0551F629FF001FC
:100F7000729FBB27F00DB11D639FAA27F00DB11D15
:100F8000AA1F649F6627B00DA11D661F829F22279E
:100F9000B00DA11D621F739FB00DA11D621F839F25
:100FA000A00D611D221F749F3327A00D611D231FFB
:100FB000849F600D211D822F762F6A2F11249F5749
:100FC00050409AF0F1F088234AF0EE0FFF1FBB1F4C
:100FD000661F771F881F91505040A9F79E3F51050B
:100FE00080F00C944A070C9495075F3FE4F3983E19
:100FF000D4F3869577956795B795F795E7959F5FB5
:10100000C1F7FE2B880F911D9695879597F9089546
:10101000A1E21A2EAA1BBB1BFD010DC0AA1FBB1FFC
:10102000EE1FFF1FA217B307E407F50720F0A21B6E
:10103000B30BE40BF50B661F771F881F991F1A94DB
:1010400069F760957095809590959B01AC01BD0105
:08105000CF010895F894FFCFD1
:101058002B681534AE0843616C69622032306F43E7
:101068000043616C69622032356F430043616C69EB
:10107800622035306F430043616C69622038306FFD
:10108800430044545544202D204E3034004E5443E0
:101098003A203230202D2038306F430011040411DB
:1010A800040411000007011C1C04110011041C1980
:1010B8001307000011040404040411001816151382
:1010C8001706111F1F1F110D030F101F110407070B
:1010D8000704111F181615131706111F0000000426
:1010E8000A0A04001F0E0E0E15151B1F060906001E
:0410F80000000000F4
:00000001FF
