S00C00006D61696E2E7372656373
S11300000C9434000C9460000C9485000C94510002
S11300100C9451000C9451000C9451000C94510018
S11300200C9451000C9451000C9451000C94510008
S11300300C9451000C9451000C9451000C945100F8
S11300400C9451000C9451000C9451000C945100E8
S11300500C9451000C9451000C9451000C945100D8
S11300600C9451000C94510011241FBECFEFD8E022
S1130070DEBFCDBF11E0A0E0B1E0EAE4F1E102C0EF
S113008005900D92A43AB107D9F721E0A4EAB1E0B2
S113009001C01D92AD3AB207E1F70E9494010C949D
S11300A0A3080C940000E9E6F0E080818A60808374
S11300B080818A7F80838DB383608DBB789408951B
S11300C01F920F920FB60F9211248F9348990CC070
S11300D08091AB018F5F8093AB018091AB01843041
S11300E070F01092AB010BC08091AA018F5F8093D6
S11300F0AA018091AA01823010F01092AA018F9176
S11301000F900FBE0F901F9018951F920F920FB66D
S11301100F9211248F9381E08093AC018F910F9003
S11301200FBE0F901F90189560E080E00E94240697
S113013086E091E00E942D056FE081E00E94240694
S113014086E50E94CE0421C020E030E040E860E073
S113015088E40E94F2029093A9018093A80160E0D0
S113016081E00E9424068091A8019091A9010E9437
S1130170690444E00E943A052FE788E391E02150A6
S113018080409040E1F700C000008091AC018823DA
S1130190D9F28091A8019091A9019093A70180932D
S11301A0A6011092AC01089560E080E00E9424064C
S11301B081E191E00E942D056FE081E00E94240618
S11301C086E50E94CE0421C020E030E040E860E0F3
S11301D088E40E94F2029093A9018093A80160E050
S11301E081E00E9424068091A8019091A9010E94B7
S11301F0690444E00E943A052FE788E391E0215026
S113020080409040E1F700C000008091AC01882359
S1130210D9F28091A8019091A9019093050180934E
S113022004011092AC01089560E080E00E9424066D
S11302308CE191E00E942D056FE081E00E9424068C
S113024086E50E94CE0421C020E030E040E860E072
S113025088E40E94F2029093A9018093A80160E0CF
S113026081E00E9424068091A8019091A9010E9436
S1130270690444E00E943A052FE788E391E02150A5
S113028080409040E1F700C000008091AC018823D9
S1130290D9F28091A8019091A901909303018093D0
S11302A002011092AC01089560E080E00E942406EF
S11302B087E291E00E942D056FE081E00E94240610
S11302C086E50E94CE0421C020E030E040E860E0F2
S11302D088E40E94F2029093A9018093A80160E04F
S11302E081E00E9424068091A8019091A9010E94B6
S11302F0690444E00E943A052FE788E391E0215025
S113030080409040E1F700C000008091AC01882358
S1130310D9F28091A8019091A90190930101809351
S113032000011092AC0108950E94E1040E943D0670
S11303301092AC011092AB011092AA018AB1827F93
S11303408AB98AB180618AB98BB18D608BB98BB15E
S11303508F7E8BB90E94530060E080E00E942406E7
S113036082E391E00E942D0560E081E00E94240672
S11303708DE391E00E942D058BB180618BB9809152
S1130380AC018823E1F31092AC018BB18F7E8BB961
S113039081E00E94BB042FEF80E792E0215080406F
S11303A09040E1F700C0000048994FC00E9420032C
S11303B021C08091AB01813049F028F0823049F0AE
S11303C0833051F00CC00E943A030BC00E946C03AE
S11303D008C00E949E0305C00E94D00302C00E9470
S11303E03A032FEF84E39CE0215080409040E1F7F2
S11303F000C000008091AC018823D9F21092AC01B6
S113040081E00E94BB042FEF80E792E021508040FE
S11304109040E1F700C000008091AB01813049F0C9
S113042028F0823049F0833051F00CC00E949400CF
S1130430BBCF0E94D400B8CF0E941401B5CF0E9454
S11304405401B2CF0E949400AFCF0E940204809165
S1130450AA01882379F1813009F05BC00E9421044C
S11304608091AC01882309F49FCF0E9433066EE08B
S113047081E00E94240686E50E94CE0414C060E058
S113048081E00E94240620E030E040E860E088E457
S11304900E94F2029093A5018093A4010E94690432
S11304A044E00E943A058091AC01882341F3109204
S11304B0AC017ACF0E9445048091AC01882309F4F1
S11304C073CF0E9433066EE081E00E94240687E029
S11304D00E94CE0483E40E94CE0414C060E081E054
S11304E00E94240620E030E040E860E088E40E94B6
S11304F0F2029093A5018093A4010E947B0442E040
S11305000E943A058091AC01882341F31092AC011A
S11305104BCF0E9445048091AC01882309F444CF59
S11305200E9433066EE081E00E94240687E00E9468
S1130530CE0483E40E94CE0414C060E081E00E94F3
S1130540240620E030E040E860E088E40E94F20203
S11305509093A5018093A4010E947B0442E00E9431
S11305603A058091AC01882341F31092AC011CCF71
S11305701F93CF93DF93162FC42FD52F880F0E947C
S11305806906812F0E949B068D2F0E949B068C2F4B
S11305900E949B060E94930680E0DF91CF911F91F9
S11305A00895CF93DF93D62FC82FCC0F8C2F0E94A2
S11305B069068D2F0E949B060E94930681E08C0F92
S11305C00E9490060E94AD06C82F0E94B706D82F3D
S11305D00E9493068C2F90E0982F88278D2BDF9113
S11305E0CF910895CF93643038F54360242BA9014B
S11305F05160611103C0A90151640EC0613019F446
S1130600A901516509C0623019F4A901516604C0F9
S1130610633011F4A9015167C82F506861E00E944A
S1130620B8028FEF9CE70197F1F700C0000060E08B
S11306308C2F0E94D10202C080E090E0CF910895F7
S113064064E671E080E00E9403066CE571E081E0FD
S11306500E94030664E571E082E00E9403066CE4F4
S113066071E083E00E9403066CE971E087E00E9478
S11306700306089581E00E94BB048FE19EE4019784
S1130680F1F700C0000060E080E00E94240681E0F1
S11306900E94CE0480E00E94CE046EE080E00E94BE
S11306A0240682E30E94CE0485E30E94CE0460E027
S11306B081E00E94240685E30E94CE0480E30E9428
S11306C0CE046EE081E00E94240688E30E94CE04FA
S11306D080E30E94CE04089581E00E94BB048FE170
S11306E09EE40197F1F700C0000060E080E00E9402
S11306F0240682E30E94CE0480E30E94CE046EE0CE
S113070080E00E94240681E00E94CE0482E00E94E0
S1130710CE0460E081E00E94240685E30E94CE04BA
S113072080E30E94CE046EE081E00E94240688E308
S11307300E94CE0480E30E94CE04089581E00E94CA
S1130740BB048FE19EE40197F1F700C0000060E074
S113075080E00E94240682E30E94CE0480E30E948B
S1130760CE046EE080E00E94240682E30E94CE0460
S113077085E30E94CE0460E081E00E94240682E0CA
S11307800E94CE0480E00E94CE046EE081E00E94CC
S1130790240688E30E94CE0480E30E94CE040895D8
S11307A081E00E94BB048FE19EE40197F1F700C051
S11307B0000060E080E00E94240682E30E94CE04F0
S11307C080E30E94CE046EE080E00E94240682E36F
S11307D00E94CE0485E30E94CE0460E081E00E9482
S11307E0240685E30E94CE0480E30E94CE046EE0DA
S11307F081E00E94240683E00E94CE0480E00E94EF
S1130800CE04089564E971E080E00E9403066CE878
S113081071E081E00E94030664E871E082E00E94D6
S113082003066CE771E083E00E94030664E771E06D
S113083084E00E9403066CE671E085E00E940306F2
S1130840089581E00E94BB048FE19EE40197F1F7D3
S113085000C0000060E081E00E94240680E00E9465
S1130860BB0481E00E94BB0482E00E94BB046DE0F3
S113087081E00E94240683E40E94BB0485E60E9472
S1130880BB048CE60E94BB04089581E00E94BB0473
S11308908FE19EE40197F1F700C0000060E081E081
S11308A00E94240686E50E94BB048FE60E94BB04D6
S11308B08CE60E94BB046DE081E00E94240683E084
S11308C00E94BB0484E00E94BB0485E00E94BB0438
S11308D00895BC0180E090E00E94620726EA3BE9AB
S11308E044EC50E40E94140820E030E040E058E377
S11308F00E9414080895BC0180E090E00E94620701
S113090026EA3BE944EC50E40E94140820E030E07D
S113091040E058E30E94140828E535E545ED5FE31F
S11309200E94C20620E030E040E451E40E94140832
S1130930089588B1846088B98FE891E00197F1F750
S113094000C0000088B18B7F88B98FE891E00197DF
S1130950F1F700C00000089595B1937C95B925B1D5
S1130960807F90E09595879595958795822B85B99D
S11309700E9499040895CF93C82F88B18E7F88B9B7
S11309808C2F807F0E94AC048C2F8295807F0E94E4
S1130990AC0488B18E7F88B9CF910895CF93C82FC6
S11309A088B1816088B98C2F807F0E94AC048C2F21
S11309B08295807F0E94AC0488B18E7F88B9CF91E4
S11309C0089584B18C6384B987B1876087B988B18D
S11309D08E7F88B988B18D7F88B92FEF89EF90E039
S11309E0215080409040E1F700C0000080E30E9465
S11309F0AC048FE19EE40197F1F700C0000080E3AE
S1130A000E94AC0487E592E00197F1F700C0000072
S1130A1080E30E94AC0487E592E00197F1F700C0FF
S1130A20000080E20E94AC0487E592E00197F1F7B0
S1130A3000C0000088E20E94BB048CE00E94BB045A
S1130A4086E00E94BB0481E00E94BB048FE39FE127
S1130A500197F1F700C000000895CF93DF93EC01F4
S1130A6003C00E94CE04219688818111FACFDF91C0
S1130A70CF9108957F928F929F92AF92BF92CF921F
S1130A80DF92EF92FF920F931F93CF93DF93CDB733
S1130A90DEB768970FB6F894DEBF0FBECDBF4B012B
S1130AA05C01742E84E0841718F46894772472F837
S1130AB020E030E0A901C501B4010E942E0788237B
S1130AC03CF48DE20E94CE04B7FAB094B7F8B09427
S1130AD0C501B4010E9433076B017C010E946207C7
S1130AE09B01AC01C501B4010E94C1064B015C012C
S1130AF0C114D104E104F104D1F480E3898301E059
S1130B0030C0C701B6012AE030E040E050E00E9466
S1130B108108EDE0F0E0EC0FFD1FE10FF11D605DD9
S1130B206083C22ED32EE42EF52E1F5F01C010E089
S1130B30C114D104E104F10421F700E010C0115004
S1130B40EDE0F0E0EC0FFD1FE10FF11D8081E1E02D
S1130B50F0E0EC0FFD1FE00FF11D80830F5F11111A
S1130B60EECFE1E0F0E0EC0FFD1FE00FF11D10828D
S1130B7010E00AC0E1E0F0E0EC0FFD1FE10FF11D11
S1130B8080810E94CE041F5F1017A0F3772039F1F3
S1130B908EE20E94CE0400E020C020E030E040E27B
S1130BA051E4C501B4010E9414086B017C010E9448
S1130BB03307162F80E3810F0E94CE04612F70E06B
S1130BC080E090E00E9464079B01AC01C701B6017C
S1130BD00E94C1064B015C010F5F0715F0F2689695
S1130BE00FB6F894DEBF0FBECDBFDF91CF911F913A
S1130BF00F91FF90EF90DF90CF90BF90AF909F90B8
S1130C008F907F9008950F931F93CF938B018770DC
S1130C1090E0880F991F880F991F880F991F80648F
S1130C200E94BB04C0E007C0F801EC0FF11D8081F5
S1130C300E94CE04CF5FC830B8F380E80E94BB04A2
S1130C40CF911F910F91089520E4829FC001112438
S1130C508068860F0E94BB0487EC90E00197F1F74F
S1130C6000C00000089581E00E94BB048FE19EE46F
S1130C700197F1F700C0000008951092B90088E4CC
S1130C808093B800089594EA9093BC009091BC00BE
S1130C909923E4F79091B900987F983011F090313E
S1130CA091F48093BB0084E88093BC008091BC00E5
S1130CB08823E4F78091B900887F883131F080344B
S1130CC031F480E0089581E0089580E0089581E0A2
S1130CD0089594EA9093BC009091BC009923E4F7A2
S1130CE09091B900987F983011F0903191F78093EA
S1130CF0BB0094E89093BC009091BC009923E4F766
S1130D009091B900987F903211F0983541F494E9AC
S1130D109093BC009091BC0094FDFCCFDACF089571
S1130D200E944306089584E98093BC008091BC002E
S1130D3084FDFCCF08958093BB0084E88093BC00BD
S1130D408091BC008823E4F78091B900887F8832C1
S1130D5011F081E0089580E0089584EC8093BC0054
S1130D608091BC008823E4F78091BB00089584E857
S1130D708093BC008091BC008823E4F78091BB0081
S1130D8008955058BB27AA270E94D9060C94DA0765
S1130D900E94CC0738F00E94D30720F039F49F3F1B
S1130DA019F426F40C94C9070EF4E095E7FB0C94AF
S1130DB0C307E92F0E94EB0758F3BA1762077307BA
S1130DC08407950720F079F4A6F50C940D080EF429
S1130DD0E0950B2EBA2FA02D0B01B90190010C0147
S1130DE0CA01A0011124FF27591B99F0593F50F45F
S1130DF0503E68F11A16F040A22F232F342F4427B7
S1130E00585FF3CF469537952795A795F0405395AE
S1130E10C9F77EF41F16BA0B620B730B840BBAF07E
S1130E209150A1F0FF0FBB1F661F771F881FC2F7E9
S1130E300EC0BA0F621F731F841F48F487957795FD
S1130E406795B795F7959E3F08F0B0CF9395880FB7
S1130E5008F09927EE0F9795879508950E949F07AC
S1130E6008F481E008950E94F30788F09F5798F0F2
S1130E70B92F9927B751B0F0E1F0660F771F881F9B
S1130E80991F1AF0BA95C9F714C0B13091F00E94B5
S1130E900D08B1E008950C940D08672F782F88276A
S1130EA0B85F39F0B93FCCF3869577956795B395DC
S1130EB0D9F73EF490958095709561957F4F8F4F4B
S1130EC09F4F0895E89409C097FB3EF49095809550
S1130ED0709561957F4F8F4F9F4F9923A9F0F92FFC
S1130EE096E9BB279395F695879577956795B7957A
S1130EF0F111F8CFFAF4BB0F11F460FF1BC06F5F60
S1130F007F4F8F4F9F4F16C0882311F096E911C071
S1130F10772321F09EE8872F762F05C0662371F092
S1130F2096E8862F70E060E02AF09A95660F771FA6
S1130F30881FDAF7880F9695879597F90895990F82
S1130F400008550FAA0BE0E8FEEF16161706E8078F
S1130F50F907C0F012161306E407F50798F0621BB0
S1130F60730B840B950B39F40A2661F0232B242B85
S1130F70252B21F408950A2609F4A140A6958FEFA4
S1130F80811D811D089597F99F6780E870E060E0F6
S1130F9008959FEF80EC089500240A94161617060E
S1130FA018060906089500240A9412161306140656
S1130FB005060895092E0394000C11F4882352F0B9
S1130FC0BB0F40F4BF2B11F460FF04C06F5F7F4F71
S1130FD08F4F9F4F089557FD9058440F551F59F058
S1130FE05F3F71F04795880F97FB991F61F09F3F12
S1130FF079F087950895121613061406551FF2CF3B
S11310004695F1DF08C0161617061806991FF1CF8A
S113101086957105610508940895E894BB276627B1
S11310207727CB0197F908950E9427080C94DA07D3
S11310300E94CC0738F00E94D30720F0952311F0CA
S11310400C94C3070C94C90711240C940E080E9435
S1131050EB0770F3959FC1F3950F50E0551F629F06
S1131060F001729FBB27F00DB11D639FAA27F00DFD
S1131070B11DAA1F649F6627B00DA11D661F829F24
S11310802227B00DA11D621F739FB00DA11D621F09
S1131090839FA00D611D221F749F3327A00D611D26
S11310A0231F849F600D211D822F762F6A2F112408
S11310B09F5750409AF0F1F088234AF0EE0FFF1F3B
S11310C0BB1F661F771F881F91505040A9F79E3F92
S11310D0510580F00C94C3070C940E085F3FE4F3B1
S11310E0983ED4F3869577956795B795F795E795E8
S11310F09F5FC1F7FE2B880F911D9695879597F9F1
S11311000895A1E21A2EAA1BBB1BFD010DC0AA1F44
S1131110BB1FEE1FFF1FA217B307E407F50720F05C
S1131120A21BB30BE40BF50B661F771F881F991FD7
S11311301A9469F760957095809590959B01AC0120
S10D1140BD01CF010895F894FFCF1C
S113114A2B681534AE0843616C69622032306F43F0
S113115A0043616C69622032356F430043616C69F4
S113116A622035306F430043616C69622038306F06
S113117A430044545544202D204E3034004E5443E9
S113118A3A203230202D2038306F430011040411E4
S113119A040411000007011C1C04110011041C1989
S11311AA130700001104040404041100181615138B
S11311BA1706111F1F1F110D030F101F1104070714
S11311CA0704111F181615131706111F000000042F
S11311DA0A0A04001F0E0E0E15151B1F0609060027
S10711EA00000000FD
S9030000FC
