:100000000C9434000C9457020C9479020C94510017
:100010000C9451000C9451000C9451000C9451001C
:100020000C9451000C9451000C9451000C9451000C
:100030000C9451000C9451000C9451000C945100FC
:100040000C9451000C9451000C9451000C945100EC
:100050000C9451000C9451000C9451000C945100DC
:100060000C9451000C94510011241FBECFEFD8E026
:10007000DEBFCDBF12E0A0E0B1E0E6E5FAE102C0EC
:1000800005900D92A032B107D9F722E0A0E2B2E0CC
:1000900001C01D92A932B207E1F70E9440040C94FE
:1000A000290D0C940000609122027091230280E0DF
:1000B00090E00E94010D60910C0170910D0182E0B1
:1000C00090E00E94010D60910A0170910B0184E0A3
:1000D00090E00E94010D609108017091090186E095
:1000E00090E00E94010D08952F923F924F925F92EF
:1000F0006F927F928F929F92AF92BF92CF92DF9238
:10010000EF92FF920F931F93CF93DF93CDB7DEB79C
:100110006C970FB6F894DEBF0FBECDBF6091220280
:1001200070912302072E000C880B990B0E94BC0BC8
:1001300069837A838B839C8360910C0170910D019C
:10014000072E000C880B990B0E94BC0B6D837E83DD
:100150008F83988760910A0170910B01072E000C24
:10016000880B990B0E94BC0B69877A878B879C87C9
:100170006091080170910901072E000C880B990B02
:100180000E94BC0B6D877E878F87988B00E010E004
:10019000198A1A8A1B8A1C8A198E1A8E1B8E1C8E2B
:1001A0001D8A1E8A1F8A188EC12CD12C760150C040
:1001B0001801220C331C220C331CE1E0F0E0EC0FA0
:1001C000FD1FE20DF31D4080518062807380A3010A
:1001D0009201C701B6010E94A80A6B017C01F101DE
:1001E000EA55FE4F80809180A280B380A5019401E2
:1001F0006D897E898F89988D0E94A80A6D8B7E8B70
:100200008F8B988FA5019401C301B2010E946C0CE1
:100210009B01AC01698D7A8D8B8D9C8D0E94A80A03
:10022000698F7A8F8B8F9C8FA3019201C301B201DA
:100230000E946C0C9B01AC0169897A898B899C892D
:100240000E94A80A698B7A8B8B8B9C8B0F5F1F4F48
:10025000043011050CF4ACCF20E030E040E850E46D
:1002600069897A898B899C890E946C0C4B015C019D
:10027000A7019601C701B6010E946C0C9B01AC015D
:10028000C501B4010E94A70A4B015C0120E030E0E7
:10029000A9010E94140B882309F443C020E030E038
:1002A00040E850E4698D7A8D8B8D9C8D0E946C0C9A
:1002B0002B013C012D893E894F89588DC701B6011C
:1002C0000E946C0C9B01AC01C301B2010E94A70A01
:1002D000A50194010E94190B9B01AC0160930401DC
:1002E000709305018093060190930701C701B60141
:1002F0000E946C0C9B01AC016D897E898F89988D61
:100300000E94A70A20E030E040E85EE30E946C0C07
:1003100060930001709301018093020190930301A7
:1003200018C08CEB94E7A3E1BBE3809304019093A6
:100330000501A0930601B093070180E090E0A0EAD8
:10034000B1E48093000190930101A0930201B09366
:1003500003016C960FB6F894DEBF0FBECDBFDF91E0
:10036000CF911F910F91FF90EF90DF90CF90BF90B2
:10037000AF909F908F907F906F905F904F903F9045
:100380002F90089510922302109222028EEA98E094
:1003900090930D0180930C0185E194E390930B0100
:1003A00080930A018BE298E69093090180930801FB
:1003B0000E9453000E947400089580E090E00E9423
:1003C000FB0C8F3F2FEF920721F090932302809335
:1003D000220282E090E00E94FB0C8F3F2FEF9207F9
:1003E00021F090930D0180930C0184E090E00E9435
:1003F000FB0C8F3F2FEF920721F090930B0180931E
:100400000A0186E090E00E94FB0C8F3F2FEF9207DD
:1004100021F090930901809308010E9474000895CF
:10042000BC01990F880B990B0E94BC0B26EA3BE993
:1004300044EC50E40E946C0C20E030E040E058E3D3
:100440000E946C0C0895BC01990F880B990B0E94B7
:10045000BC0B26EA3BE944EC50E40E946C0C20E023
:1004600030E040E058E30E946C0C28E535E545EDAE
:100470005FE30E94A80A20E030E040E451E40E94DB
:100480006C0C089520E030E040E861E088E40E94D0
:10049000C2060895E9E6F0E080818A608083808169
:1004A0008A7F80838DB383608DBB789408951F927B
:1004B0000F920FB60F9211248F93809127028F5FB6
:1004C0008093270280912702863010F01092270235
:1004D000809126028F5F80932602809126028330CE
:1004E00010F0109226028F910F900FBE0F901F9068
:1004F00018951F920F920FB60F9211248F9381E0DF
:10050000809328028F910F900FBE0F901F90189527
:1005100060E080E00E940A0A8EE091E00E941309E8
:100520006FE081E00E940A0A86E50E94B4081CC0C0
:100530000E944202909325028093240260E081E0B1
:100540000E940A0A80912402909125020E941002C2
:1005500044E00E9420092FEF80E792E02150804084
:100560009040E1F700C0000080912802882301F349
:10057000809124029091250290932302809322027D
:1005800010922802089560E080E00E940A0A89E142
:1005900091E00E9413096FE081E00E940A0A86E55B
:1005A0000E94B4081CC00E944202909325028093CE
:1005B000240260E081E00E940A0A80912402909166
:1005C00025020E94100244E00E9420092FEF80E7DC
:1005D00092E0215080409040E1F700C000008091FF
:1005E0002802882301F380912402909125029093A0
:1005F0000D0180930C0110922802089560E080E0C4
:100600000E940A0A84E291E00E9413096FE081E0EF
:100610000E940A0A86E50E94B4081CC00E94420299
:10062000909325028093240260E081E00E940A0AF0
:1006300080912402909125020E94100244E00E94C1
:1006400020092FEF80E792E0215080409040E1F7B1
:1006500000C0000080912802882301F380912402C9
:100660009091250290930B0180930A011092280229
:10067000089560E080E00E940A0A8FE291E00E9403
:1006800013096FE081E00E940A0A86E50E94B4081F
:100690001CC00E944202909325028093240260E0D5
:1006A00081E00E940A0A80912402909125020E9412
:1006B000100244E00E9420092FEF80E792E02150D1
:1006C00080409040E1F700C000008091280288231C
:1006D00001F3809124029091250290930901809367
:1006E0000801109228020895109228020E94190A07
:1006F0002FEF81EE94E0215080409040E1F700C060
:10070000000060E080E00E940A0A8EE091E00E9412
:10071000130960E081E00E940A0A80912202909110
:1007200023020E94100244E00E9420096FE081E051
:100730000E940A0A86E50E94B40880912802882354
:10074000E1F3109228020E94190A2FEF81EE94E043
:10075000215080409040E1F700C0000060E080E060
:100760000E940A0A89E191E00E94130960E081E099
:100770000E940A0A80910C0190910D010E941002C2
:1007800044E00E9420096FE081E00E940A0A86E5A9
:100790000E94B408809128028823E1F31092280275
:1007A0000E94190A2FEF81EE94E021508040904082
:1007B000E1F700C0000060E080E00E940A0A84E2E5
:1007C00091E00E94130960E081E00E940A0A809192
:1007D0000A0190910B010E94100244E00E9420093E
:1007E0006FE081E00E940A0A86E50E94B4088091C9
:1007F00028028823E1F3109228020E94190A2FEFA1
:1008000081EE94E0215080409040E1F700C000006C
:1008100060E080E00E940A0A8FE291E00E941309E2
:1008200060E081E00E940A0A80910801909109012C
:100830000E94100244E00E9420096FE081E00E94C3
:100840000A0A86E50E94B408809128028823E1F311
:1008500010922802089581E00E949E082FEF81EEF9
:1008600094E0215080409040E1F700C0000060E03B
:1008700080E00E940A0A8AE391E00E941309089529
:100880002FEF81EE94E0215080409040E1F700C0CE
:10089000000084B1816084B985B1816085B90E940E
:1008A000CA080E94230A2FEF81EE94E02150804075
:1008B0009040E1F700C0000085B18E7F85B91092AD
:1008C000280210922702109226028AB1827F8AB9EA
:1008D0008AB180618AB98BB18D608BB98BB18F7E03
:1008E0008BB90E944A022FEF81EE94E021508040A4
:1008F0009040E1F700C0000085B1816085B960E0FB
:1009000080E00E940A0A88E491E00E94130960E0F6
:1009100081E00E940A0A83E591E00E9413098AB1EE
:1009200080688AB98BB180688BB98BB180618BB9D3
:10093000809128028823E1F3109228028BB18F7EE8
:100940008BB981E00E949E082FEF81EE94E0215048
:1009500080409040E1F700C000008AB180648AB90D
:100960004899D2C08BB180648BB960E080E00E946E
:100970000A0A82E691E00E941309809128028823E6
:10098000E1F381E00E949E082FEF81EE94E0215078
:1009900080409040E1F700C00000109228020E94C1
:1009A000F0062DC080912702823091F028F4882330
:1009B00049F0813051F018C0843081F060F085300A
:1009C00081F012C00E940A0711C00E943C070EC0AD
:1009D0000E946E070BC00E94A00708C00E94D207A9
:1009E00005C00E942B0402C00E940A072FEF89E66F
:1009F00098E1215080409040E1F700C000008091D4
:100A00002802882379F21092280281E00E949E0831
:100A10002FEF81EE94E0215080409040E1F700C03C
:100A2000000080912702823091F028F4882349F059
:100A3000813051F03EC0843081F060F0853081F02B
:100A400038C00E94880237C00E94C30234C00E948E
:100A5000FE0231C00E9439032EC00E9474032BC0D5
:100A60000E94C2012FEF81EE94E02150804090401F
:100A7000E1F700C0000081E00E949E082FEF81EEA8
:100A800094E0215080409040E1F700C0000060E019
:100A900080E00E940A0A8DE691E00E9413092FEF80
:100AA00089E698E1215080409040E1F700C00000C5
:100AB00002C00E94880281E00E949E082FEF81EE12
:100AC00094E0215080409040E1F700C000000E9477
:100AD00053002FEF89E698E1215080409040E1F7E4
:100AE00000C0000060E080E00E940A0A88E791E010
:100AF0000E9413092FEF89E698E121508040904031
:100B0000E1F700C000004BCF8BB18F7B8BB960E069
:100B100080E00E940A0A89E891E00E94130980910E
:100B200028028823E1F3109228022FEF89E698E14A
:100B3000215080409040E1F700C0000081E00E9419
:100B40009E082FEF89E698E1215080409040E1F720
:100B500000C0000060E080E00E940A0A85E991E0A0
:100B60000E94130960E081E00E940A0A8FE991E087
:100B70000E9413090E94DD012FEF89E698E12150C0
:100B800080409040E1F700C0000081E00E949E0894
:100B90002FEF81EE94E0215080409040E1F700C0BB
:100BA00000000E94E407109228021CC080912602D7
:100BB000813021F030F0823039F009C00E940808FD
:100BC00008C00E942C0805C00E94500802C00E9464
:100BD0002C082FEF89E698E1215080409040E1F702
:100BE00000C0000080912802882301F3109228029F
:100BF0000E94190A2FEF81EE94E02150804090402E
:100C0000E1F700C0000060E080E00E940A0A88E48A
:100C100091E00E94130980912602813029F060F151
:100C2000823009F454C056C06EE081E00E940A0A86
:100C300086E50E94B4081BC060E081E00E940A0AB9
:100C40000E94420290932102809320020E9410028F
:100C500044E00E94200980E20E94B4082FEF89E658
:100C600098E1215080409040E1F700C00000809161
:100C70002802882309F349C06EE081E00E940A0A35
:100C800087E00E94B40883E40E94B4081BC060E0BF
:100C900081E00E940A0A0E944202909321028093FE
:100CA00020020E94230242E00E94200980E20E946A
:100CB000B4082FEF89E698E1215080409040E1F799
:100CC00000C0000080912802882309F31EC00E9402
:100CD00074031BC06EE081E00E940A0A86E50E9450
:100CE000B4080FC060E081E00E940A0A0E9442023C
:100CF00090932102809320020E94100244E00E94FF
:100D0000200980912802882369F31092280249CF94
:100D10001F93CF93DF93162FC42FD52F880F0E94D8
:100D20004F0A812F0E94810A8D2F0E94810A8C2FE9
:100D30000E94810A0E94790A80E0DF91CF911F9181
:100D40000895CF93DF93D62FC82FCC0F8C2F0E94FE
:100D50004F0A8D2F0E94810A0E94790A81E08C0F30
:100D60000E94760A0E94930AC82F0E949D0AD82FDB
:100D70000E94790A8C2F90E0982F88278D2BDF9185
:100D8000CF910895CF93643038F54360242BA901A7
:100D90005160611103C0A90151640EC0613019F4A2
:100DA000A901516509C0623019F4A901516604C056
:100DB000633011F4A9015167C82F506861E00E94A7
:100DC00088068FEF9CE70197F1F700C0000060E014
:100DD0008C2F0E94A10602C080E090E0CF91089580
:100DE0006AED71E080E00E94E90962ED71E081E066
:100DF0000E94E9096AEC71E082E00E94E90962EC74
:100E000071E083E00E94E90968E172E087E00E94F6
:100E1000E909089581E00E949E088FE19EE4019710
:100E2000F1F700C0000060E080E00E940A0A81E063
:100E30000E94B40880E00E94B4086EE080E00E9446
:100E40000A0A82E30E94B40885E30E94B40860E0C5
:100E500081E00E940A0A85E30E94B40880E30E94B0
:100E6000B4086EE081E00E940A0A88E30E94B40898
:100E700080E30E94B408089581E00E949E088FE1FB
:100E80009EE40197F1F700C0000060E080E00E945E
:100E90000A0A82E30E94B40880E30E94B4086EE06C
:100EA00080E00E940A0A81E00E94B40882E00E9469
:100EB000B40860E081E00E940A0A85E30E94B40859
:100EC00080E30E94B4086EE081E00E940A0A88E391
:100ED0000E94B40880E30E94B408089581E00E9453
:100EE0009E088FE19EE40197F1F700C0000060E0EA
:100EF00080E00E940A0A82E30E94B40880E30E9414
:100F0000B4086EE080E00E940A0A82E30E94B408FE
:100F100085E30E94B40860E081E00E940A0A82E052
:100F20000E94B40880E00E94B4086EE081E00E9454
:100F30000A0A88E30E94B40880E30E94B408089576
:100F400081E00E949E088FE19EE40197F1F700C0C6
:100F5000000060E080E00E940A0A82E30E94B40878
:100F600080E30E94B4086EE080E00E940A0A82E3F7
:100F70000E94B40885E30E94B40860E081E00E940A
:100F80000A0A85E30E94B40880E30E94B4086EE078
:100F900081E00E940A0A83E00E94B40880E00E9477
:100FA000B408089581E00E949E088FE19EE40197B5
:100FB000F1F700C0000060E080E00E940A0A86EBC2
:100FC00091E00E941309089560E172E080E00E94C0
:100FD000E90968E072E081E00E94E90960E072E0FE
:100FE00082E00E94E90968EF71E083E00E94E9096C
:100FF00060EF71E084E00E94E90968EE71E085E04D
:101000000E94E90968E172E087E00E94E909089519
:1010100081E00E949E088FE19EE40197F1F700C0F5
:10102000000060E081E00E940A0A80E00E94B408AB
:1010300081E00E94B40882E00E94B4086DE081E083
:101040000E940A0A83E40E94B40885E60E94B4085C
:101050008CE60E94B408089581E00E949E088FE10A
:101060009EE40197F1F700C0000060E081E00E947B
:101070000A0A86E50E94B4088FE60E94B4088CE64E
:101080000E94B4086DE081E00E940A0A83E00E9499
:10109000B40884E00E94B40885E00E94B408089572
:1010A00081E00E949E088FE19EE40197F1F700C065
:1010B00000006AE080E00E940A0A82EE91E00E944D
:1010C000130960E081E00E940A0A86E50E94B408E4
:1010D0008FE60E94B4088CE60E94B4086DE081E0BF
:1010E0000E940A0A83E40E94B40885E60E94B408BC
:1010F0008CE60E94B408089588B1816088B98FE1B8
:1011000093E00197F1F700C0000088B18E7F88B9A5
:101110008FE193E00197F1F700C00000089595B1C9
:10112000937C95B925B1807F90E0959587959595AD
:101130008795822B85B90E947C080895CF93C82F8C
:1011400088B18B7F88B98C2F807F0E948F088C2F6D
:101150008295807F0E948F0887EC90E00197F1F7DD
:1011600000C00000CF910895CF93C82F88B184604C
:1011700088B98C2F807F0E948F088C2F8295807F6A
:101180000E948F0887EC90E00197F1F700C0000003
:10119000CF91089584B18C6384B987B1876087B992
:1011A00088B1887F88B92FEF80E792E02150804096
:1011B0009040E1F700C0000080E30E948F088FE1BB
:1011C0009EE40197F1F700C0000080E30E948F08C1
:1011D00087E592E00197F1F700C0000080E30E94EC
:1011E0008F0887E592E00197F1F700C0000080E2E8
:1011F0000E948F0887E592E00197F1F700C0000098
:1012000088E20E949E088CE00E949E0881E00E9475
:101210009E088FE39FE10197F1F700C0000086E090
:101220000E949E080895CF93DF93EC0103C00E94B3
:10123000B408219688818111FACFDF91CF9108956A
:101240007F928F929F92AF92BF92CF92DF92EF9256
:10125000FF920F931F93CF93DF93CDB7DEB76897BD
:101260000FB6F894DEBF0FBECDBF4B015C01742EEC
:1012700084E0841718F46894772472F820E030E052
:10128000A901C501B4010E94140B88233CF48DE22E
:101290000E94B408B7FAB094B7F8B094C501B4018D
:1012A0000E948B0B6B017C010E94BA0B9B01AC016D
:1012B000C501B4010E94A70A4B015C01C114D1040D
:1012C000E104F104D1F480E3898301E030C0C70177
:1012D000B6012AE030E040E050E00E94D90CEDE099
:1012E000F0E0EC0FFD1FE10FF11D605D6083C22E89
:1012F000D32EE42EF52E1F5F01C010E0C114D104DF
:10130000E104F10421F700E010C01150EDE0F0E03D
:10131000EC0FFD1FE10FF11D8081E1E0F0E0EC0F2B
:10132000FD1FE00FF11D80830F5F1111EECFE1E093
:10133000F0E0EC0FFD1FE00FF11D108210E00AC07D
:10134000E1E0F0E0EC0FFD1FE10FF11D80810E9454
:10135000B4081F5F1017A0F3772039F18EE20E94C6
:10136000B40800E020C020E030E040E251E4C501D4
:10137000B4010E946C0C6B017C010E948B0B162F38
:1013800080E3810F0E94B408612F70E080E090E05C
:101390000E94BC0B9B01AC01C701B6010E94A70AC9
:1013A0004B015C010F5F0715F0F268960FB6F894D9
:1013B000DEBF0FBECDBFDF91CF911F910F91FF9088
:1013C000EF90DF90CF90BF90AF909F908F907F90E5
:1013D00008950F931F93CF938B01877090E0880F30
:1013E000991F880F991F880F991F80640E949E087B
:1013F000C0E007C0F801EC0FF11D80810E94B40825
:10140000CF5FC830B8F380E80E949E08CF911F914B
:101410000F91089520E4829FC00111248068860FF7
:101420000E949E0887EC90E00197F1F700C0000051
:10143000089581E00E949E088FE19EE40197F1F7F4
:1014400000C0000008951092B90088E48093B800AD
:10145000089594EA9093BC009091BC009923E4F71E
:101460009091B900987F983011F0903191F4809369
:10147000BB0084E88093BC008091BC008823E4F723
:101480008091B900887F883131F0803431F480E078
:10149000089581E0089580E0089581E0089594EA38
:1014A0009093BC009091BC009923E4F79091B9000F
:1014B000987F983011F0903191F78093BB0094E8B9
:1014C0009093BC009091BC009923E4F79091B900EF
:1014D000987F903211F0983541F494E99093BC00D4
:1014E0009091BC0094FDFCCFDACF08950E94290AA8
:1014F000089584E98093BC008091BC0084FDFCCFFA
:1015000008958093BB0084E88093BC008091BC0068
:101510008823E4F78091B900887F883211F081E058
:10152000089580E0089584EC8093BC008091BC0015
:101530008823E4F78091BB00089584E88093BC0081
:101540008091BC008823E4F78091BB000895505837
:10155000BB27AA270E94BF0A0C94320C0E94240CBD
:1015600038F00E942B0C20F039F49F3F19F426F438
:101570000C94210C0EF4E095E7FB0C941B0CE92F66
:101580000E94430C58F3BA17620773078407950744
:1015900020F079F4A6F50C94650C0EF4E0950B2E72
:1015A000BA2FA02D0B01B90190010C01CA01A001B5
:1015B0001124FF27591B99F0593F50F4503E68F110
:1015C0001A16F040A22F232F342F4427585FF3CF51
:1015D000469537952795A795F0405395C9F77EF422
:1015E0001F16BA0B620B730B840BBAF09150A1F06B
:1015F000FF0FBB1F661F771F881FC2F70EC0BA0FF1
:10160000621F731F841F48F4879577956795B79578
:10161000F7959E3F08F0B0CF9395880F08F0992773
:10162000EE0F9795879508950E94F70B08F481E0D7
:1016300008950E942D0B0C94320C0E942B0C58F034
:101640000E94240C40F029F45F3F29F00C941B0CFD
:1016500051110C94660C0C94210C0E94430C68F3FD
:101660009923B1F3552391F3951B550BBB27AA275B
:1016700062177307840738F09F5F5F4F220F331F95
:10168000441FAA1FA9F335D00E2E3AF0E0E832D05D
:1016900091505040E695001CCAF72BD0FE2F29D060
:1016A000660F771F881FBB1F261737074807AB0732
:1016B000B0E809F0BB0B802DBF01FF2793585F4FA7
:1016C0003AF09E3F510578F00C941B0C0C94660C7C
:1016D0005F3FE4F3983ED4F3869577956795B79589
:1016E000F7959F5FC9F7880F911D9695879597F994
:1016F0000895E1E0660F771F881FBB1F621773070D
:101700008407BA0720F0621B730B840BBA0BEE1F21
:1017100088F7E09508950E944B0C88F09F5798F049
:10172000B92F9927B751B0F0E1F0660F771F881FE6
:10173000991F1AF0BA95C9F714C0B13091F00E9400
:10174000650CB1E008950C94650C672F782F8827FD
:10175000B85F39F0B93FCCF3869577956795B39527
:10176000D9F73EF490958095709561957F4F8F4F96
:101770009F4F0895E89409C097FB3EF4909580959B
:10178000709561957F4F8F4F9F4F9923A9F0F92F47
:1017900096E9BB279395F695879577956795B795C5
:1017A000F111F8CFFAF4BB0F11F460FF1BC06F5FAB
:1017B0007F4F8F4F9F4F16C0882311F096E911C0BD
:1017C000772321F09EE8872F762F05C0662371F0DE
:1017D00096E8862F70E060E02AF09A95660F771FF2
:1017E000881FDAF7880F9695879597F90895990FCE
:1017F0000008550FAA0BE0E8FEEF16161706E807DB
:10180000F907C0F012161306E407F50798F0621BFB
:10181000730B840B950B39F40A2661F0232B242BD0
:10182000252B21F408950A2609F4A140A6958FEFEF
:10183000811D811D089597F99F6780E870E060E041
:1018400008959FEF80EC089500240A941616170659
:1018500018060906089500240A94121613061406A1
:1018600005060895092E0394000C11F4882352F004
:10187000BB0F40F4BF2B11F460FF04C06F5F7F4FBC
:101880008F4F9F4F089557FD9058440F551F59F0A3
:101890005F3F71F04795880F97FB991F61F09F3F5D
:1018A00079F087950895121613061406551FF2CF86
:1018B0004695F1DF08C0161617061806991FF1CFD6
:1018C00086957105610508940895E894BB276627FD
:1018D0007727CB0197F908950E947F0C0C94320C66
:1018E0000E94240C38F00E942B0C20F0952311F05C
:1018F0000C941B0C0C94210C11240C94660C0E946B
:10190000430C70F3959FC1F3950F50E0551F629FF4
:10191000F001729FBB27F00DB11D639FAA27F00D48
:10192000B11DAA1F649F6627B00DA11D661F829F6F
:101930002227B00DA11D621F739FB00DA11D621F54
:10194000839FA00D611D221F749F3327A00D611D71
:10195000231F849F600D211D822F762F6A2F112453
:101960009F5750409AF0F1F088234AF0EE0FFF1F86
:10197000BB1F661F771F881F91505040A9F79E3FDD
:10198000510580F00C941B0C0C94660C5F3FE4F343
:10199000983ED4F3869577956795B795F795E79533
:1019A0009F5FC1F7FE2B880F911D9695879597F93C
:1019B0000895A1E21A2EAA1BBB1BFD010DC0AA1F90
:1019C000BB1FEE1FFF1FA217B307E407F50720F0A8
:1019D000A21BB30BE40BF50B661F771F881F991F23
:1019E0001A9469F760957095809590959B01AC016C
:1019F000BD01CF010895A8E1B0E042E050E00C94B1
:101A0000090D0196272F0E94180D0C94170DDC016B
:101A1000CB01FC01F999FECF06C0F2BDE1BDF89AF9
:101A2000319600B40D9241505040B8F70895262FDA
:101A3000F999FECF92BD81BDF89A019700B40216C4
:101A400039F01FBA20BD0FB6F894FA9AF99A0FBE72
:061A50000895F894FFCF99
:101A56000000A041BC74133B2B681534AE084361EB
:101A66006C69622032306F430043616C69622032D8
:101A7600356F430043616C69622035306F43004324
:101A8600616C69622038306F43005265736574205B
:101A960056616C7565203F0044545544202D204EF8
:101AA6003034004E54433A203230202D2038306FE7
:101AB600430043616C6962206D6F646500446F6E1C
:101AC6006520526573657400536176656420746F92
:101AD60020454550524F4D20004E6F726D616C206F
:101AE6006D6F646500446F6E65204C6F61640045E0
:101AF6004550524F4D000000A0410000C841000073
:101B060048420000A04256616C5F43616C696220E6
:101B16003F0011040411040411000007011C1C04F9
:101B2600110011041C191307000011040404040415
:101B3600110043616C696200181615131706111F10
:101B46001F1F110D030F101F110407070704111F94
:101B5600181615131706111F000000040A0A0400C0
:101B66001F0E0E0E15151B1F0609060000000000AD
:00000001FF
