:100000000C9434000C9492000C94B4000C945100A5
:100010000C9451000C9451000C9451000C9451001C
:100020000C9451000C9451000C9451000C9451000C
:100030000C9451000C9451000C9451000C945100FC
:100040000C9451000C9451000C9451000C945100EC
:100050000C9451000C9451000C9451000C945100DC
:100060000C9451000C94510011241FBECFEFD8E026
:10007000DEBFCDBF11E0A0E0B1E0EAE2F4E102C0F2
:1000800005900D92AE3CB107D9F721E0AEECB1E09E
:1000900001C01D92A73DB207E1F70E947A020C94BD
:1000A000130A0C940000BC01990F880B990B0E9455
:1000B000D40826EA3BE944EC50E40E94840920E09D
:1000C00030E040E058E30E9484090895BC01990F94
:1000D000880B990B0E94D40826EA3BE944EC50E4D3
:1000E0000E94840920E030E040E058E30E94840947
:1000F00028E535E545ED5FE30E94320820E030E079
:1001000040E451E40E9484090895E9E6F0E080812A
:100110008A60808380818A7F80838DB383608DBB7A
:10012000789408951F920F920FB60F9211248F9317
:100130008091D5018F5F8093D5018091D501853065
:1001400010F01092D5018091D4018F5F8093D4017B
:100150008091D401833010F01092D4018F910F90D0
:100160000FBE0F901F9018951F920F920FB60F920F
:1001700011248F9381E08093D6018F910F900FBE51
:100180000F901F90189560E080E00E94940786E031
:1001900091E00E949D066FE081E00E94940786E551
:1001A0000E943E0621C020E030E040E860E088E4A4
:1001B0000E944F049093D3018093D20160E081E0CC
:1001C0000E9494078091D2019091D3010E94530024
:1001D00044E00E94AA062FEF80E792E02150804081
:1001E0009040E1F700C000008091D6018823D9F249
:1001F0008091D2019091D3019093D1018093D0014D
:100200001092D601089560E080E00E94940781E199
:1002100091E00E949D066FE081E00E94940786E5D0
:100220000E943E0621C020E030E040E860E088E423
:100230000E944F049093D3018093D20160E081E04B
:100240000E9494078091D2019091D3010E945300A3
:1002500044E00E94AA062FEF80E792E02150804000
:100260009040E1F700C000008091D6018823D9F2C8
:100270008091D2019091D301909305018093040164
:100280001092D601089560E080E00E9494078CE10E
:1002900091E00E949D066FE081E00E94940786E550
:1002A0000E943E0621C020E030E040E860E088E4A3
:1002B0000E944F049093D3018093D20160E081E0CB
:1002C0000E9494078091D2019091D3010E94530023
:1002D00044E00E94AA062FEF80E792E02150804080
:1002E0009040E1F700C000008091D6018823D9F248
:1002F0008091D2019091D3019093030180930201E8
:100300001092D601089560E080E00E94940787E291
:1003100091E00E949D066FE081E00E94940786E5CF
:100320000E943E0621C020E030E040E860E088E422
:100330000E944F049093D3018093D20160E081E04A
:100340000E9494078091D2019091D3010E945300A2
:1003500044E00E94AA062FEF80E792E021508040FF
:100360009040E1F700C000008091D6018823D9F2C7
:100370008091D2019091D30190930101809300016B
:100380001092D60108951092D6010E94A3072FEF74
:1003900081EE94E0215080409040E1F700C00000E1
:1003A00060E080E00E94940786E091E00E949D0654
:1003B00060E081E00E9494078091D0019091D1018A
:1003C0000E94530044E00E94AA066FE081E00E9470
:1003D000940786E50E943E068091D6018823E1F3CA
:1003E0001092D6010E94A3072FEF81EE94E02150D6
:1003F00080409040E1F700C0000060E080E00E9493
:10040000940781E191E00E949D0660E081E00E94F6
:10041000940780910401909105010E94530044E0EB
:100420000E94AA066FE081E00E94940786E50E9480
:100430003E068091D6018823E1F31092D6010E94F6
:10044000A3072FEF81EE94E0215080409040E1F728
:1004500000C0000060E080E00E9494078CE191E021
:100460000E949D0660E081E00E9494078091020155
:10047000909103010E94530044E00E94AA066FE09D
:1004800081E00E94940786E50E943E068091D60195
:100490008823E1F31092D6010E94A3072FEF81EE8B
:1004A00094E0215080409040E1F700C0000060E0FF
:1004B00080E00E94940787E291E00E949D0660E040
:1004C00081E00E94940780910001909101010E94B7
:1004D000530044E00E94AA066FE081E00E94940766
:1004E00086E50E943E068091D6018823E1F31092B2
:1004F000D60108950E9451060E94AD071092D601C0
:100500001092D5011092D4018AB1827F8AB98AB142
:1005100080618AB98BB18D608BB98BB18F7E8BB9BD
:100520000E94850060E080E00E94940782E391E0F1
:100530000E949D0660E081E00E9494078DE391E0B7
:100540000E949D068BB180618BB98091D601882372
:10055000E1F31092D6018BB18F7E8BB981E00E94BE
:100560002B062FEF81EE94E0215080409040E1F780
:1005700000C00000489979C060E080E00E949407C4
:100580008CE491E00E949D068091D6018823E1F3DE
:1005900081E00E942B062FEF81EE94E021508040F5
:1005A0009040E1F700C000001092D6010E947D0447
:1005B00029C08091D501823089F028F4882341F048
:1005C000813049F014C0833061F0843069F00FC08D
:1005D0000E9497040EC00E94C9040BC00E94FB0435
:1005E00008C00E942D0505C00E945F0502C00E9440
:1005F00097042FEF89E698E1215080409040E1F781
:1006000000C000008091D601882399F21092D60193
:1006100081E00E942B062FEF81EE94E02150804074
:100620009040E1F700C000008091D501823089F050
:1006300028F4882341F0813049F014C0833061F000
:10064000843069F00FC00E94C300B0CF0E94030144
:10065000ADCF0E944301AACF0E948301A7CF0E9481
:10066000C301A4CF0E94C300A1CF60E080E00E943C
:10067000940787E591E00E949D068091D60188232A
:10068000E1F31092D60181E00E942B062FEF81EE5C
:1006900094E0215080409040E1F700C000000E94AB
:1006A00071051092D6011CC08091D401813021F0D7
:1006B00030F0823039F009C00E94950508C00E94D0
:1006C000B90505C00E94DD0502C00E94B9052FEFE3
:1006D00089E698E1215080409040E1F700C0000099
:1006E0008091D601882301F31092D6010E94A307BE
:1006F0002FEF81EE94E0215080409040E1F700C060
:10070000000060E080E00E94940782E391E00E9494
:100710009D068091D401813029F088F1823009F45E
:100720005EC060C06EE081E00E94940786E50E9492
:100730003E0620C060E081E00E94940720E030E0A7
:1007400040E860E088E40E944F049093CF018093DA
:10075000CE010E94530044E00E94AA0680E20E945B
:100760003E062FEF81EE94E0215080409040E1F76B
:1007700000C000008091D6018823E1F253C06EE0F2
:1007800081E00E94940787E00E943E0683E40E9475
:100790003E0620C060E081E00E94940720E030E047
:1007A00040E860E088E40E944F049093CF0180937A
:1007B000CE010E94660042E00E94AA0680E20E94EA
:1007C0003E062FEF81EE94E0215080409040E1F70B
:1007D00000C000008091D6018823E1F223C00E946E
:1007E000C30120C06EE081E00E94940786E50E946C
:1007F0003E0614C060E081E00E94940720E030E0F3
:1008000040E860E088E40E944F049093CF01809319
:10081000CE010E94530044E00E94AA068091D601B6
:10082000882341F31092D6013ACF1F93CF93DF93E1
:10083000162FC42FD52F880F0E94D907812F0E9411
:100840000B088D2F0E940B088C2F0E940B080E9412
:10085000030880E0DF91CF911F910895CF93DF933C
:10086000D62FC82FCC0F8C2F0E94D9078D2F0E9416
:100870000B080E94030881E08C0F0E9400080E9470
:100880001D08C82F0E942708D82F0E9403088C2F0C
:1008900090E0982F88278D2BDF91CF910895CF93EB
:1008A000643038F54360242BA9015160611103C005
:1008B000A90151640EC0613019F4A901516509C044
:1008C000623019F4A901516604C0633011F4A90122
:1008D0005167C82F506861E00E9415048FEF9CE7B4
:1008E0000197F1F700C0000060E08C2F0E942E04F9
:1008F00002C080E090E0CF91089567E871E080E069
:100900000E9473076FE771E081E00E94730767E759
:1009100071E082E00E9473076FE671E083E00E945D
:10092000730765EC71E087E00E947307089581E02A
:100930000E942B068FE19EE40197F1F700C00000B2
:1009400060E080E00E94940781E00E943E0680E023
:100950000E943E066EE080E00E94940782E30E94BF
:100960003E0685E30E943E0660E081E00E94940717
:1009700085E30E943E0680E30E943E066EE081E031
:100980000E94940788E30E943E0680E30E943E0690
:10099000089581E00E942B068FE19EE40197F1F714
:1009A00000C0000060E080E00E94940782E30E94A3
:1009B0003E0680E30E943E066EE080E00E949407BF
:1009C00081E00E943E0682E00E943E0660E081E0F7
:1009D0000E94940785E30E943E0680E30E943E0643
:1009E0006EE081E00E94940788E30E943E0680E367
:1009F0000E943E06089581E00E942B068FE19EE44E
:100A00000197F1F700C0000060E080E00E949407C9
:100A100082E30E943E0680E30E943E066EE080E094
:100A20000E94940782E30E943E0685E30E943E06F0
:100A300060E081E00E94940782E00E943E0680E030
:100A40000E943E066EE081E00E94940788E30E94C7
:100A50003E0680E30E943E06089581E00E942B0638
:100A60008FE19EE40197F1F700C0000060E080E0B4
:100A70000E94940782E30E943E0680E30E943E06A5
:100A80006EE080E00E94940782E30E943E0685E3C8
:100A90000E943E0660E081E00E94940785E30E9488
:100AA0003E0680E30E943E066EE081E00E949407CD
:100AB00083E00E943E0680E00E943E06089581E0A9
:100AC0000E942B068FE19EE40197F1F700C0000021
:100AD00060E080E00E94940783E691E00E949D061A
:100AE00008956DEB71E080E00E94730765EB71E0A3
:100AF00081E00E9473076DEA71E082E00E94730753
:100B000065EA71E083E00E9473076DE971E084E0BB
:100B10000E94730765E971E085E00E94730765EC48
:100B200071E087E00E947307089581E00E942B0620
:100B30008FE19EE40197F1F700C0000060E081E0E2
:100B40000E94940780E00E943E0681E00E943E06DB
:100B500082E00E943E066DE081E00E94940783E4FB
:100B60000E943E0685E60E943E068CE60E943E06F6
:100B7000089581E00E942B068FE19EE40197F1F732
:100B800000C0000060E081E00E94940786E50E94BA
:100B90003E068FE60E943E068CE60E943E066DE011
:100BA00081E00E94940783E00E943E0684E00E9458
:100BB0003E0685E00E943E06089581E00E942B06D5
:100BC0008FE19EE40197F1F700C000006AE080E049
:100BD0000E9494078FE891E00E949D0660E081E00A
:100BE0000E94940786E50E943E068FE60E943E061C
:100BF0008CE60E943E066DE081E00E94940783E44B
:100C00000E943E0685E60E943E068CE60E943E0655
:100C1000089588B1846088B98FE891E00197F1F771
:100C200000C0000088B18B7F88B98FE891E0019700
:100C3000F1F700C00000089595B1937C95B925B1F6
:100C4000807F90E09595879595958795822B85B9BE
:100C50000E9409060895CF93C82F88B18E7F88B966
:100C60008C2F807F0E941C068C2F8295807F0E9493
:100C70001C0688B18E7F88B9CF910895CF93C82F75
:100C800088B1816088B98C2F807F0E941C068C2FD0
:100C90008295807F0E941C0688B18E7F88B9CF9193
:100CA000089584B18C6384B987B1876087B988B1AE
:100CB0008E7F88B988B18D7F88B92FEF89EF90E05A
:100CC000215080409040E1F700C0000080E30E9486
:100CD0001C068FE19EE40197F1F700C0000080E35D
:100CE0000E941C0687E592E00197F1F700C0000022
:100CF00080E30E941C0687E592E00197F1F700C0AF
:100D0000000080E20E941C0687E592E00197F1F75F
:100D100000C0000088E20E942B068CE00E942B0697
:100D200086E00E942B0681E00E942B068FE39FE164
:100D30000197F1F700C000000895CF93DF93EC0115
:100D400003C00E943E06219688818111FACFDF916F
:100D5000CF9108957F928F929F92AF92BF92CF9240
:100D6000DF92EF92FF920F931F93CF93DF93CDB754
:100D7000DEB768970FB6F894DEBF0FBECDBF4B014C
:100D80005C01742E84E0841718F46894772472F858
:100D900020E030E0A901C501B4010E949E0888232B
:100DA0003CF48DE20E943E06B7FAB094B7F8B094D6
:100DB000C501B4010E94A3086B017C010E94D20806
:100DC0009B01AC01C501B4010E9431084B015C01DB
:100DD000C114D104E104F104D1F480E3898301E07A
:100DE00030C0C701B6012AE030E040E050E00E9488
:100DF000F109EDE0F0E0EC0FFD1FE10FF11D605D8A
:100E00006083C22ED32EE42EF52E1F5F01C010E0AA
:100E1000C114D104E104F10421F700E010C0115025
:100E2000EDE0F0E0EC0FFD1FE10FF11D8081E1E04E
:100E3000F0E0EC0FFD1FE00FF11D80830F5F11113B
:100E4000EECFE1E0F0E0EC0FFD1FE00FF11D1082AE
:100E500010E00AC0E1E0F0E0EC0FFD1FE10FF11D32
:100E600080810E943E061F5F1017A0F3772039F1A2
:100E70008EE20E943E0600E020C020E030E040E22A
:100E800051E4C501B4010E9484096B017C010E94F8
:100E9000A308162F80E3810F0E943E06612F70E0A9
:100EA00080E090E00E94D4089B01AC01C701B6012C
:100EB0000E9431084B015C010F5F0715F0F2689644
:100EC0000FB6F894DEBF0FBECDBFDF91CF911F915B
:100ED0000F91FF90EF90DF90CF90BF90AF909F90D9
:100EE0008F907F9008950F931F93CF938B018770FE
:100EF00090E0880F991F880F991F880F991F8064B1
:100F00000E942B06C0E007C0F801EC0FF11D8081A4
:100F10000E943E06CF5FC830B8F380E80E942B06DF
:100F2000CF911F910F91089520E4829FC001112459
:100F30008068860F0E942B0687EC90E00197F1F7FE
:100F400000C00000089581E00E942B068FE19EE41E
:100F50000197F1F700C0000008951092B90088E4ED
:100F60008093B800089594EA9093BC009091BC00DF
:100F70009923E4F79091B900987F983011F090315F
:100F800091F48093BB0084E88093BC008091BC0006
:100F90008823E4F78091B900887F883131F080346C
:100FA00031F480E0089581E0089580E0089581E0C3
:100FB000089594EA9093BC009091BC009923E4F7C3
:100FC0009091B900987F983011F0903191F780930B
:100FD000BB0094E89093BC009091BC009923E4F787
:100FE0009091B900987F903211F0983541F494E9CE
:100FF0009093BC009091BC0094FDFCCFDACF089593
:101000000E94B307089584E98093BC008091BC00DE
:1010100084FDFCCF08958093BB0084E88093BC00DE
:101020008091BC008823E4F78091B900887F8832E2
:1010300011F081E0089580E0089584EC8093BC0075
:101040008091BC008823E4F78091BB00089584E878
:101050008093BC008091BC008823E4F78091BB00A2
:1010600008955058BB27AA270E9449080C944A09A2
:101070000E943C0938F00E94430920F039F49F3F58
:1010800019F426F40C9439090EF4E095E7FB0C945E
:101090003309E92F0E945B0958F3BA1762077307F7
:1010A0008407950720F079F4A6F50C947D090EF4D9
:1010B000E0950B2EBA2FA02D0B01B90190010C0168
:1010C000CA01A0011124FF27591B99F0593F50F480
:1010D000503E68F11A16F040A22F232F342F4427D8
:1010E000585FF3CF469537952795A795F0405395D0
:1010F000C9F77EF41F16BA0B620B730B840BBAF0A0
:101100009150A1F0FF0FBB1F661F771F881FC2F70A
:101110000EC0BA0F621F731F841F48F4879577951E
:101120006795B795F7959E3F08F0B0CF9395880FD8
:1011300008F09927EE0F9795879508950E940F095B
:1011400008F481E008950E94630988F09F5798F0A1
:10115000B92F9927B751B0F0E1F0660F771F881FBC
:10116000991F1AF0BA95C9F714C0B13091F00E94D6
:101170007D09B1E008950C947D09672F782F8827A9
:10118000B85F39F0B93FCCF3869577956795B395FD
:10119000D9F73EF490958095709561957F4F8F4F6C
:1011A0009F4F0895E89409C097FB3EF49095809571
:1011B000709561957F4F8F4F9F4F9923A9F0F92F1D
:1011C00096E9BB279395F695879577956795B7959B
:1011D000F111F8CFFAF4BB0F11F460FF1BC06F5F81
:1011E0007F4F8F4F9F4F16C0882311F096E911C093
:1011F000772321F09EE8872F762F05C0662371F0B4
:1012000096E8862F70E060E02AF09A95660F771FC7
:10121000881FDAF7880F9695879597F90895990FA3
:101220000008550FAA0BE0E8FEEF16161706E807B0
:10123000F907C0F012161306E407F50798F0621BD1
:10124000730B840B950B39F40A2661F0232B242BA6
:10125000252B21F408950A2609F4A140A6958FEFC5
:10126000811D811D089597F99F6780E870E060E017
:1012700008959FEF80EC089500240A94161617062F
:1012800018060906089500240A9412161306140677
:1012900005060895092E0394000C11F4882352F0DA
:1012A000BB0F40F4BF2B11F460FF04C06F5F7F4F92
:1012B0008F4F9F4F089557FD9058440F551F59F079
:1012C0005F3F71F04795880F97FB991F61F09F3F33
:1012D00079F087950895121613061406551FF2CF5C
:1012E0004695F1DF08C0161617061806991FF1CFAC
:1012F00086957105610508940895E894BB276627D3
:101300007727CB0197F908950E9497090C944A0911
:101310000E943C0938F00E94430920F0952311F007
:101320000C9433090C94390911240C947E090E9401
:101330005B0970F3959FC1F3950F50E0551F629FB5
:10134000F001729FBB27F00DB11D639FAA27F00D1E
:10135000B11DAA1F649F6627B00DA11D661F829F45
:101360002227B00DA11D621F739FB00DA11D621F2A
:10137000839FA00D611D221F749F3327A00D611D47
:10138000231F849F600D211D822F762F6A2F112429
:101390009F5750409AF0F1F088234AF0EE0FFF1F5C
:1013A000BB1F661F771F881F91505040A9F79E3FB3
:1013B000510580F00C9433090C947E095F3FE4F3EF
:1013C000983ED4F3869577956795B795F795E79509
:1013D0009F5FC1F7FE2B880F911D9695879597F912
:1013E0000895A1E21A2EAA1BBB1BFD010DC0AA1F66
:1013F000BB1FEE1FFF1FA217B307E407F50720F07E
:10140000A21BB30BE40BF50B661F771F881F991FF8
:101410001A9469F760957095809590959B01AC0141
:0A142000BD01CF010895F894FFCF3D
:10142A002B681534AE0843616C69622032306F4311
:10143A000043616C69622032356F430043616C6915
:10144A00622035306F430043616C69622038306F27
:10145A00430044545544202D204E3034004E54430A
:10146A003A203230202D2038306F430043616C69B6
:10147A0062206D6F6465004E6F726D616C206D6FD6
:10148A0064650056616C5F43616C6962203F0011BC
:10149A00040411040411000007011C1C04110011AA
:1014AA00041C191307000011040404040411004366
:1014BA00616C696200181615131706111F1F1F1198
:1014CA000D030F101F110407070704111F18161523
:1014DA00131706111F000000040A0A04001F0E0E4B
:0E14EA000E15151B1F0609060000000000006D
:00000001FF
