S00C00006D61696E2E7372656373
S11300000C9434000C9492000C94B4000C945100A1
S11300100C9451000C9451000C9451000C94510018
S11300200C9451000C9451000C9451000C94510008
S11300300C9451000C9451000C9451000C945100F8
S11300400C9451000C9451000C9451000C945100E8
S11300500C9451000C9451000C9451000C945100D8
S11300600C9451000C94510011241FBECFEFD8E022
S1130070DEBFCDBF11E0A0E0B1E0ECE9F4E102C0E5
S113008005900D92AE3CB107D9F721E0AEECB1E09A
S113009001C01D92A73DB207E1F70E947A020C94B9
S11300A04C0A0C940000BC01990F880B990B0E9418
S11300B00D0926EA3BE944EC50E40E94BD0920E026
S11300C030E040E058E30E94BD090895BC01990F57
S11300D0880B990B0E940D0926EA3BE944EC50E495
S11300E00E94BD0920E030E040E058E30E94BD09D1
S11300F028E535E545ED5FE30E946B0820E030E03C
S113010040E451E40E94BD090895E9E6F0E08081ED
S11301108A60808380818A7F80838DB383608DBB76
S1130120789408951F920F920FB60F9211248F9313
S11301308091D5018F5F8093D5018091D501853061
S113014010F01092D5018091D4018F5F8093D40177
S11301508091D401833010F01092D4018F910F90CC
S11301600FBE0F901F9018951F920F920FB60F920B
S113017011248F9381E08093D6018F910F900FBE4D
S11301800F901F90189560E080E00E94CD0786E0F4
S113019091E00E94D6066FE081E00E94CD0786E5DB
S11301A00E94770621C020E030E040E860E088E467
S11301B00E9485049093D3018093D20160E081E092
S11301C00E94CD078091D2019091D3010E945300E7
S11301D044E00E94E3062FEF80E792E02150804044
S11301E09040E1F700C000008091D6018823D9F245
S11301F08091D2019091D3019093D1018093D00149
S11302001092D601089560E080E00E94CD0781E15C
S113021091E00E94D6066FE081E00E94CD0786E55A
S11302200E94770621C020E030E040E860E088E4E6
S11302300E9485049093D3018093D20160E081E011
S11302400E94CD078091D2019091D3010E94530066
S113025044E00E94E3062FEF80E792E021508040C3
S11302609040E1F700C000008091D6018823D9F2C4
S11302708091D2019091D301909305018093040160
S11302801092D601089560E080E00E94CD078CE1D1
S113029091E00E94D6066FE081E00E94CD0786E5DA
S11302A00E94770621C020E030E040E860E088E466
S11302B00E9485049093D3018093D20160E081E091
S11302C00E94CD078091D2019091D3010E945300E6
S11302D044E00E94E3062FEF80E792E02150804043
S11302E09040E1F700C000008091D6018823D9F244
S11302F08091D2019091D3019093030180930201E4
S11303001092D601089560E080E00E94CD0787E254
S113031091E00E94D6066FE081E00E94CD0786E559
S11303200E94770621C020E030E040E860E088E4E5
S11303300E9485049093D3018093D20160E081E010
S11303400E94CD078091D2019091D3010E94530065
S113035044E00E94E3062FEF80E792E021508040C2
S11303609040E1F700C000008091D6018823D9F2C3
S11303708091D2019091D301909301018093000167
S11303801092D60108951092D6010E94DC072FEF37
S113039081EE94E0215080409040E1F700C00000DD
S11303A060E080E00E94CD0786E091E00E94D606DE
S11303B060E081E00E94CD078091D0019091D1014D
S11303C00E94530044E00E94E3066FE081E00E9433
S11303D0CD0786E50E9477068091D6018823E1F354
S11303E01092D6010E94DC072FEF81EE94E0215099
S11303F080409040E1F700C0000060E080E00E948F
S1130400CD0781E191E00E94D60660E081E00E9480
S1130410CD0780910401909105010E94530044E0AE
S11304200E94E3066FE081E00E94CD0786E50E940A
S113043077068091D6018823E1F31092D6010E94B9
S1130440DC072FEF81EE94E0215080409040E1F7EB
S113045000C0000060E080E00E94CD078CE191E0E4
S11304600E94D60660E081E00E94CD0780910201DF
S1130470909103010E94530044E00E94E3066FE060
S113048081E00E94CD0786E50E9477068091D6011F
S11304908823E1F31092D6010E94DC072FEF81EE4E
S11304A094E0215080409040E1F700C0000060E0FB
S11304B080E00E94CD0787E291E00E94D60660E0CA
S11304C081E00E94CD0780910001909101010E947A
S11304D0530044E00E94E3066FE081E00E94CD07F0
S11304E086E50E9477068091D6018823E1F3109275
S11304F0D60108952FEF81EE94E021508040904082
S1130500E1F700C0000084B1816084B985B18160E5
S113051085B90E948D060E94E6072FEF81EE94E0D4
S1130520215080409040E1F700C0000085B18E7FEB
S113053085B91092D6011092D5011092D4018AB1D6
S1130540827F8AB98AB180618AB98BB18D608BB997
S11305508BB18F7E8BB90E9485002FEF81EE94E0E2
S1130560215080409040E1F700C0000085B18160D7
S113057085B960E080E00E94CD0782E391E00E94AB
S1130580D60660E081E00E94CD078DE391E00E94F1
S1130590D6068AB180688AB98BB180688BB98BB171
S11305A080618BB98091D6018823E1F31092D60142
S11305B08BB18F7E8BB981E00E9461062FEF81EEB3
S11305C094E0215080409040E1F700C000008AB1DF
S11305D080648AB948997CC08BB180648BB960E02F
S11305E080E00E94CD078CE491E00E94D6068091C1
S11305F0D6018823E1F381E00E9461062FEF81EEAA
S113060094E0215080409040E1F700C00000109237
S1130610D6010E94B30429C08091D501823089F0AB
S113062028F4882341F0813049F014C0833061F00C
S1130630843069F00FC00E94CD040EC00E94FF04F4
S11306400BC00E94310508C00E94630505C00E94CA
S1130650950502C00E94CD042FEF89E698E1215050
S113066080409040E1F700C000008091D6018823CB
S113067099F21092D60181E00E9461062FEF81EE7B
S113068094E0215080409040E1F700C00000809148
S1130690D501823089F028F4882341F0813049F073
S11306A014C0833061F0843069F00FC00E94C3002D
S11306B0B0CF0E940301ADCF0E944301AACF0E9494
S11306C08301A7CF0E94C301A4CF0E94C300A1CF7E
S11306D08BB18F7B8BB960E080E00E94CD0787E50A
S11306E091E00E94D6068091D6018823E1F310920E
S11306F0D60181E00E9461062FEF81EE94E0215043
S113070080409040E1F700C000000E94A7051092CD
S1130710D6011CC08091D401813021F030F08230A8
S113072039F009C00E94CB0508C00E94EF0505C03E
S11307300E94130602C00E94EF052FEF89E698E19C
S1130740215080409040E1F700C000008091D60124
S1130750882301F31092D6010E94DC072FEF81EE6B
S113076094E0215080409040E1F700C0000060E038
S113077080E00E94CD0782E391E00E94D60680913A
S1130780D401813029F088F1823009F45EC060C060
S11307906EE081E00E94CD0786E50E94770620C0C6
S11307A060E081E00E94CD0720E030E040E860E0B6
S11307B088E40E9485049093CF018093CE010E9427
S11307C0530044E00E94E30680E20E9477062FEF84
S11307D081EE94E0215080409040E1F700C0000099
S11307E08091D6018823E1F253C06EE081E00E943B
S11307F0CD0787E00E94770683E40E94770620C035
S113080060E081E00E94CD0720E030E040E860E055
S113081088E40E9485049093CF018093CE010E94C6
S1130820660042E00E94E30680E20E9477062FEF12
S113083081EE94E0215080409040E1F700C0000038
S11308408091D6018823E1F223C00E94C30120C015
S11308506EE081E00E94CD0786E50E94770614C011
S113086060E081E00E94CD0720E030E040E860E0F5
S113087088E40E9485049093CF018093CE010E9466
S1130880530044E00E94E3068091D601882341F39B
S11308901092D6013ACF1F93CF93DF93162FC42F14
S11308A0D52F880F0E941208812F0E9444088D2F93
S11308B00E9444088C2F0E9444080E943C0880E057
S11308C0DF91CF911F910895CF93DF93D62FC82F37
S11308D0CC0F8C2F0E9412088D2F0E9444080E9476
S11308E03C0881E08C0F0E9439080E945608C82FEA
S11308F00E946008D82F0E943C088C2F90E0982F0B
S113090088278D2BDF91CF910895CF93643038F5EC
S11309104360242BA9015160611103C0A9015164F2
S11309200EC0613019F4A901516509C0623019F48F
S1130930A901516604C0633011F4A9015167C82F9D
S1130940506861E00E944B048FEF9CE70197F1F738
S113095000C0000060E08C2F0E94640402C080E0AC
S113096090E0CF91089567E871E080E00E94AC07C1
S11309706FE771E081E00E94AC0767E771E082E015
S11309800E94AC076FE671E083E00E94AC0765EC5F
S113099071E087E00E94AC07089581E00E9461063F
S11309A08FE19EE40197F1F700C0000060E080E071
S11309B00E94CD0781E00E94770680E00E947706BE
S11309C06EE080E00E94CD0782E30E94770685E313
S11309D00E94770660E081E00E94CD0785E30E94D3
S11309E0770680E30E9477066EE081E00E94CD07DF
S11309F088E30E94770680E30E947706089581E0E9
S1130A000E9461068FE19EE40197F1F700C00000A7
S1130A1060E080E00E94CD0782E30E94770680E3D5
S1130A200E9477066EE080E00E94CD0781E00E947C
S1130A30770682E00E94770660E081E00E94CD079D
S1130A4085E30E94770680E30E9477066EE081E0EA
S1130A500E94CD0788E30E94770680E30E94770610
S1130A60089581E00E9461068FE19EE40197F1F709
S1130A7000C0000060E080E00E94CD0782E30E9495
S1130A80770680E30E9477066EE080E00E94CD073F
S1130A9082E30E94770685E30E94770660E081E0A6
S1130AA00E94CD0782E00E94770680E00E947706CC
S1130AB06EE081E00E94CD0788E30E94770680E320
S1130AC00E947706089581E00E9461068FE19EE40A
S1130AD00197F1F700C0000060E080E00E94CD07BC
S1130AE082E30E94770680E30E9477066EE080E04E
S1130AF00E94CD0782E30E94770685E30E94770671
S1130B0060E081E00E94CD0785E30E94770680E3E0
S1130B100E9477066EE081E00E94CD0783E00E9488
S1130B20770680E00E947706089581E00E946106BE
S1130B308FE19EE40197F1F700C0000060E080E0DF
S1130B400E94CD0783E691E00E94D60608956DEBDE
S1130B5071E080E00E94AC0765EB71E081E00E94E7
S1130B60AC076DEA71E082E00E94AC0765EA71E0CF
S1130B7083E00E94AC076DE971E084E00E94AC0759
S1130B8065E971E085E00E94AC0765EC71E087E0FF
S1130B900E94AC07089581E00E9461068FE19EE403
S1130BA00197F1F700C0000060E081E00E94CD07EA
S1130BB080E00E94770681E00E94770682E00E942E
S1130BC077066DE081E00E94CD0783E40E947706FA
S1130BD085E60E9477068CE60E947706089581E0F8
S1130BE00E9461068FE19EE40197F1F700C00000C6
S1130BF060E081E00E94CD0786E50E9477068FE6DB
S1130C000E9477068CE60E9477066DE081E00E94E0
S1130C10CD0783E00E94770684E00E94770685E092
S1130C200E947706089581E00E9461068FE19EE4A8
S1130C300197F1F700C000006AE080E00E94CD0750
S1130C408FE891E00E94D60660E081E00E94CD0723
S1130C5086E50E9477068FE60E9477068CE60E945E
S1130C6077066DE081E00E94CD0783E40E94770659
S1130C7085E60E9477068CE60E947706089588B17F
S1130C80816088B98FE193E00197F1F700C000001B
S1130C9088B18E7F88B98FE193E00197F1F700C0A6
S1130CA00000089595B1937C95B925B1807F90E0BB
S1130CB09595879595958795822B85B90E943F06D2
S1130CC00895CF93C82F88B18B7F88B98C2F807FEC
S1130CD00E9452068C2F8295807F0E94520687ECD8
S1130CE090E00197F1F700C00000CF910895CF93F1
S1130CF0C82F88B1846088B98C2F807F0E945206E7
S1130D008C2F8295807F0E94520687EC90E0019799
S1130D10F1F700C00000CF91089584B18C6384B9C9
S1130D2087B1876087B988B1887F88B92FEF80E75A
S1130D3092E0215080409040E1F700C0000080E341
S1130D400E9452068FE19EE40197F1F700C0000073
S1130D5080E30E94520687E592E00197F1F700C014
S1130D60000080E30E94520687E592E00197F1F7C4
S1130D7000C0000080E20E94520687E592E00197DD
S1130D80F1F700C0000088E20E9461068CE00E9436
S1130D90610681E00E9461068FE39FE10197F1F70C
S1130DA000C0000086E00E9461060895CF93DF939F
S1130DB0EC0103C00E947706219688818111FACF45
S1130DC0DF91CF9108957F928F929F92AF92BF92BD
S1130DD0CF92DF92EF92FF920F931F93CF93DF9303
S1130DE0CDB7DEB768970FB6F894DEBF0FBECDBFA0
S1130DF04B015C01742E84E0841718F46894772402
S1130E0072F820E030E0A901C501B4010E94D708BE
S1130E1088233CF48DE20E947706B7FAB094B7F8C1
S1130E20B094C501B4010E94DC086B017C010E94EE
S1130E300B099B01AC01C501B4010E946A084B0176
S1130E405C01C114D104E104F104D1F480E3898389
S1130E5001E030C0C701B6012AE030E040E050E0D4
S1130E600E942A0AEDE0F0E0EC0FFD1FE10FF11DF6
S1130E70605D6083C22ED32EE42EF52E1F5F01C069
S1130E8010E0C114D104E104F10421F700E010C022
S1130E901150EDE0F0E0EC0FFD1FE10FF11D80813A
S1130EA0E1E0F0E0EC0FFD1FE00FF11D80830F5F28
S1130EB01111EECFE1E0F0E0EC0FFD1FE00FF11DAA
S1130EC0108210E00AC0E1E0F0E0EC0FFD1FE10F3A
S1130ED0F11D80810E9477061F5F1017A0F3772011
S1130EE039F18EE20E94770600E020C020E030E075
S1130EF040E251E4C501B4010E94BD096B017C01CB
S1130F000E94DC08162F80E3810F0E947706612F70
S1130F1070E080E090E00E940D099B01AC01C701E4
S1130F20B6010E946A084B015C010F5F0715F0F2DD
S1130F3068960FB6F894DEBF0FBECDBFDF91CF9198
S1130F401F910F91FF90EF90DF90CF90BF90AF90E3
S1130F509F908F907F9008950F931F93CF938B0151
S1130F60877090E0880F991F880F991F880F991F29
S1130F7080640E946106C0E007C0F801EC0FF11D17
S1130F8080810E947706CF5FC830B8F380E80E9462
S1130F906106CF911F910F91089520E4829FC001B3
S1130FA011248068860F0E94610687EC90E0019707
S1130FB0F1F700C00000089581E00E9461068FE10E
S1130FC09EE40197F1F700C0000008951092B90063
S1130FD088E48093B800089594EA9093BC009091BB
S1130FE0BC009923E4F79091B900987F983011F0F0
S1130FF0903191F48093BB0084E88093BC0080918D
S1131000BC008823E4F78091B900887F883131F0EF
S1131010803431F480E0089581E0089580E00895FB
S113102081E0089594EA9093BC009091BC009923C8
S1131030E4F79091B900987F983011F0903191F7CE
S11310408093BB0094E89093BC009091BC009923DA
S1131050E4F79091B900987F903211F0983541F4FB
S113106094E99093BC009091BC0094FDFCCFDACF3E
S113107008950E94EC07089584E98093BC00809150
S1131080BC0084FDFCCF08958093BB0084E880936A
S1131090BC008091BC008823E4F78091B900887F6C
S11310A0883211F081E0089580E0089584EC809303
S11310B0BC008091BC008823E4F78091BB000895B4
S11310C084E88093BC008091BC008823E4F780917D
S11310D0BB0008955058BB27AA270E9482080C948D
S11310E083090E94750938F00E947C0920F039F4C4
S11310F09F3F19F426F40C9472090EF4E095E7FB73
S11311000C946C09E92F0E94940958F3BA176207EA
S113111073078407950720F079F4A6F50C94B609B3
S11311200EF4E0950B2EBA2FA02D0B01B9019001FE
S11311300C01CA01A0011124FF27591B99F0593F42
S113114050F4503E68F11A16F040A22F232F342F8A
S11311504427585FF3CF469537952795A795F040D8
S11311605395C9F77EF41F16BA0B620B730B840BED
S1131170BAF09150A1F0FF0FBB1F661F771F881FA5
S1131180C2F70EC0BA0F621F731F841F48F48795FD
S113119077956795B795F7959E3F08F0B0CF9395EF
S11311A0880F08F09927EE0F9795879508950E9468
S11311B0480908F481E008950E949C0988F09F572B
S11311C098F0B92F9927B751B0F0E1F0660F771F67
S11311D0881F991F1AF0BA95C9F714C0B13091F05D
S11311E00E94B609B1E008950C94B609672F782FD0
S11311F08827B85F39F0B93FCCF386957795679522
S1131200B395D9F73EF490958095709561957F4F8D
S11312108F4F9F4F0895E89409C097FB3EF4909533
S11312208095709561957F4F8F4F9F4F9923A9F0BB
S1131230F92F96E9BB279395F6958795779567954A
S1131240B795F111F8CFFAF4BB0F11F460FF1BC08E
S11312506F5F7F4F8F4F9F4F16C0882311F096E921
S113126011C0772321F09EE8872F762F05C06623CF
S113127071F096E8862F70E060E02AF09A95660F88
S1131280771F881FDAF7880F9695879597F9089541
S1131290990F0008550FAA0BE0E8FEEF1616170683
S11312A0E807F907C0F012161306E407F50798F0EB
S11312B0621B730B840B950B39F40A2661F0232B04
S11312C0242B252B21F408950A2609F4A140A69580
S11312D08FEF811D811D089597F99F6780E870E065
S11312E060E008959FEF80EC089500240A94161698
S11312F0170618060906089500240A941216130600
S1131300140605060895092E0394000C11F488238D
S113131052F0BB0F40F4BF2B11F460FF04C06F5FA9
S11313207F4F8F4F9F4F089557FD9058440F551F7F
S113133059F05F3F71F04795880F97FB991F61F053
S11313409F3F79F087950895121613061406551FCA
S1131350F2CF4695F1DF08C0161617061806991F36
S1131360F1CF86957105610508940895E894BB272B
S113137066277727CB0197F908950E94D0090C942A
S113138083090E94750938F00E947C0920F0952396
S113139011F00C946C090C94720911240C94B70983
S11313A00E94940970F3959FC1F3950F50E0551F67
S11313B0629FF001729FBB27F00DB11D639FAA27A6
S11313C0F00DB11DAA1F649F6627B00DA11D661FF5
S11313D0829F2227B00DA11D621F739FB00DA11D16
S11313E0621F839FA00D611D221F749F3327A00DD0
S11313F0611D231F849F600D211D822F762F6A2F6C
S113140011249F5750409AF0F1F088234AF0EE0FD0
S1131410FF1FBB1F661F771F881F91505040A9F7FD
S11314209E3F510580F00C946C090C94B7095F3F02
S1131430E4F3983ED4F3869577956795B795F79539
S1131440E7959F5FC1F7FE2B880F911D96958795B1
S113145097F90895A1E21A2EAA1BBB1BFD010DC02A
S1131460AA1FBB1FEE1FFF1FA217B307E407F50750
S113147020F0A21BB30BE40BF50B661F771F881F2C
S1131480991F1A9469F760957095809590959B01C2
S10F1490AC01BD01CF010895F894FFCF1A
S113149C2B681534AE0843616C69622032306F439B
S11314AC0043616C69622032356F430043616C699F
S11314BC622035306F430043616C69622038306FB1
S11314CC430044545544202D204E3034004E544394
S11314DC3A203230202D2038306F430043616C6940
S11314EC62206D6F6465004E6F726D616C206D6F60
S11314FC64650056616C5F43616C6962203F001146
S113150C040411040411000007011C1C0411001133
S113151C041C1913070000110404040404110043EF
S113152C616C696200181615131706111F1F1F1121
S113153C0D030F101F110407070704111F181615AC
S113154C131706111F000000040A0A04001F0E0ED4
S111155C0E15151B1F060906000000000000F6
S9030000FC
