S01000004144435F6D61696E2E7372656348
S11300000C9434000C9451000C9451000C94510045
S11300100C9451000C9451000C9451000C94510018
S11300200C9451000C9451000C9451000C94510008
S11300300C9451000C9451000C9451000C945100F8
S11300400C9451000C9451000C9451000C945100E8
S11300500C9451000C9451000C9451000C945100D8
S11300600C9451000C94510011241FBECFEFD8E022
S1130070DEBFCDBF11E0A0E0B1E0E2E4F2E002C0F7
S113008005900D92A631B107D9F721E0A6E1B1E0C0
S113009001C01D92A631B207E1F70E9453000C94EF
S11300A01F010C9400000E9419010E949E008AB155
S11300B08E7F8AB98BB181608BB960E080E00E9449
S11300C0FD0080E091E00E940C0160E081E00E946C
S11300D0FD008CE091E00E940C01FFCF982F907FEF
S11300E095B998B19E7F98B998B1946098B9EFE9A1
S11300F0FFE03197F1F700C0000098B19B7F98B9F9
S1130100EFE9FFE03197F1F700C00000F0E18F9FC5
S1130110C001112485B988B1846088B98FE99FE052
S11301200197F1F700C0000088B18B7F88B9EFE92F
S1130130FFE03197F1F700C0000008958CE384B923
S113014087B1876087B988E085B988B1846088B948
S11301508FE99FE00197F1F700C0000088B18B7F21
S113016088B98FE99FE00197F1F700C0000088E2A9
S11301700E946E008FE99FE00197F1F700C0000034
S11301808FE00E946E008FE99FE00197F1F700C0B5
S1130190000080E80E946E000895982F907F95B922
S11301A098B1916098B998B1946098B9EFE3FFE180
S11301B03197F1F700C0000098B19B7F98B9EFE345
S11301C0FFE13197F1F700C00000F0E18F9FC0011B
S11301D0112485B988B1846088B98FE39FE10197C0
S11301E0F1F700C0000088B18B7F88B9EFE3FFE12D
S11301F03197F1F700C00000089520E4829FC00108
S113020011248068860F0E946E0087EC90E00197AD
S1130210F1F700C000000895CF93DF93EC0103C011
S11302200E94CD00219688818111FACFDF91CF9170
S113023008951092B90088E48093B8000895F89462
S1050240FFCFEA
S113024257656C636F6D2044545544004E544320EB
S109025254656D7000000C
S9030000FC
